{
  "_format": "hh-sol-artifact-1",
  "contractName": "Funding",
  "sourceName": "contracts/Funding.sol",
  "abi": [
    {
      "anonymous": false,
      "inputs": [
        {
          "indexed": true,
          "internalType": "address",
          "name": "owner",
          "type": "address"
        },
        {
          "indexed": true,
          "internalType": "address",
          "name": "approved",
          "type": "address"
        },
        {
          "indexed": true,
          "internalType": "uint256",
          "name": "tokenId",
          "type": "uint256"
        }
      ],
      "name": "Approval",
      "type": "event"
    },
    {
      "anonymous": false,
      "inputs": [
        {
          "indexed": true,
          "internalType": "address",
          "name": "owner",
          "type": "address"
        },
        {
          "indexed": true,
          "internalType": "address",
          "name": "operator",
          "type": "address"
        },
        {
          "indexed": false,
          "internalType": "bool",
          "name": "approved",
          "type": "bool"
        }
      ],
      "name": "ApprovalForAll",
      "type": "event"
    },
    {
      "anonymous": false,
      "inputs": [
        {
          "indexed": true,
          "internalType": "address",
          "name": "previousOwner",
          "type": "address"
        },
        {
          "indexed": true,
          "internalType": "address",
          "name": "newOwner",
          "type": "address"
        }
      ],
      "name": "OwnershipTransferred",
      "type": "event"
    },
    {
      "anonymous": false,
      "inputs": [
        {
          "indexed": true,
          "internalType": "address",
          "name": "from",
          "type": "address"
        },
        {
          "indexed": true,
          "internalType": "address",
          "name": "to",
          "type": "address"
        },
        {
          "indexed": true,
          "internalType": "uint256",
          "name": "tokenId",
          "type": "uint256"
        }
      ],
      "name": "Transfer",
      "type": "event"
    },
    {
      "inputs": [
        {
          "internalType": "address",
          "name": "",
          "type": "address"
        },
        {
          "internalType": "uint256",
          "name": "",
          "type": "uint256"
        }
      ],
      "name": "_tokenOwners",
      "outputs": [
        {
          "internalType": "uint256",
          "name": "",
          "type": "uint256"
        }
      ],
      "stateMutability": "view",
      "type": "function"
    },
    {
      "inputs": [
        {
          "internalType": "uint256",
          "name": "",
          "type": "uint256"
        }
      ],
      "name": "_tokenURIs",
      "outputs": [
        {
          "internalType": "string",
          "name": "",
          "type": "string"
        }
      ],
      "stateMutability": "view",
      "type": "function"
    },
    {
      "inputs": [
        {
          "internalType": "address",
          "name": "to",
          "type": "address"
        },
        {
          "internalType": "uint256",
          "name": "tokenId",
          "type": "uint256"
        }
      ],
      "name": "approve",
      "outputs": [],
      "stateMutability": "nonpayable",
      "type": "function"
    },
    {
      "inputs": [
        {
          "internalType": "address",
          "name": "owner",
          "type": "address"
        }
      ],
      "name": "balanceOf",
      "outputs": [
        {
          "internalType": "uint256",
          "name": "",
          "type": "uint256"
        }
      ],
      "stateMutability": "view",
      "type": "function"
    },
    {
      "inputs": [
        {
          "internalType": "uint256",
          "name": "",
          "type": "uint256"
        }
      ],
      "name": "deadlines",
      "outputs": [
        {
          "internalType": "uint256",
          "name": "",
          "type": "uint256"
        }
      ],
      "stateMutability": "view",
      "type": "function"
    },
    {
      "inputs": [
        {
          "internalType": "uint256",
          "name": "_tokenID",
          "type": "uint256"
        }
      ],
      "name": "funding",
      "outputs": [],
      "stateMutability": "payable",
      "type": "function"
    },
    {
      "inputs": [
        {
          "internalType": "uint256",
          "name": "",
          "type": "uint256"
        }
      ],
      "name": "fundingOwner",
      "outputs": [
        {
          "internalType": "address",
          "name": "",
          "type": "address"
        }
      ],
      "stateMutability": "view",
      "type": "function"
    },
    {
      "inputs": [
        {
          "internalType": "uint256",
          "name": "",
          "type": "uint256"
        }
      ],
      "name": "fundingPot",
      "outputs": [
        {
          "internalType": "uint256",
          "name": "",
          "type": "uint256"
        }
      ],
      "stateMutability": "view",
      "type": "function"
    },
    {
      "inputs": [
        {
          "internalType": "uint256",
          "name": "tokenId",
          "type": "uint256"
        }
      ],
      "name": "getApproved",
      "outputs": [
        {
          "internalType": "address",
          "name": "",
          "type": "address"
        }
      ],
      "stateMutability": "view",
      "type": "function"
    },
    {
      "inputs": [
        {
          "internalType": "address",
          "name": "owner",
          "type": "address"
        },
        {
          "internalType": "address",
          "name": "operator",
          "type": "address"
        }
      ],
      "name": "isApprovedForAll",
      "outputs": [
        {
          "internalType": "bool",
          "name": "",
          "type": "bool"
        }
      ],
      "stateMutability": "view",
      "type": "function"
    },
    {
      "inputs": [
        {
          "internalType": "string",
          "name": "tokenURI",
          "type": "string"
        },
        {
          "internalType": "uint256",
          "name": "_tokenId",
          "type": "uint256"
        }
      ],
      "name": "mintMynft",
      "outputs": [],
      "stateMutability": "nonpayable",
      "type": "function"
    },
    {
      "inputs": [
        {
          "internalType": "string",
          "name": "tokenURI",
          "type": "string"
        },
        {
          "internalType": "uint256",
          "name": "_price",
          "type": "uint256"
        }
      ],
      "name": "mintMynftPriced",
      "outputs": [],
      "stateMutability": "nonpayable",
      "type": "function"
    },
    {
      "inputs": [],
      "name": "name",
      "outputs": [
        {
          "internalType": "string",
          "name": "",
          "type": "string"
        }
      ],
      "stateMutability": "view",
      "type": "function"
    },
    {
      "inputs": [],
      "name": "owner",
      "outputs": [
        {
          "internalType": "address",
          "name": "",
          "type": "address"
        }
      ],
      "stateMutability": "view",
      "type": "function"
    },
    {
      "inputs": [
        {
          "internalType": "uint256",
          "name": "tokenId",
          "type": "uint256"
        }
      ],
      "name": "ownerOf",
      "outputs": [
        {
          "internalType": "address",
          "name": "",
          "type": "address"
        }
      ],
      "stateMutability": "view",
      "type": "function"
    },
    {
      "inputs": [
        {
          "internalType": "uint256",
          "name": "",
          "type": "uint256"
        },
        {
          "internalType": "uint256",
          "name": "",
          "type": "uint256"
        }
      ],
      "name": "participants",
      "outputs": [
        {
          "internalType": "address",
          "name": "",
          "type": "address"
        }
      ],
      "stateMutability": "view",
      "type": "function"
    },
    {
      "inputs": [
        {
          "internalType": "uint256",
          "name": "",
          "type": "uint256"
        },
        {
          "internalType": "uint256",
          "name": "",
          "type": "uint256"
        }
      ],
      "name": "participateTokens",
      "outputs": [
        {
          "internalType": "uint256",
          "name": "",
          "type": "uint256"
        }
      ],
      "stateMutability": "view",
      "type": "function"
    },
    {
      "inputs": [
        {
          "internalType": "uint256",
          "name": "",
          "type": "uint256"
        }
      ],
      "name": "prices",
      "outputs": [
        {
          "internalType": "uint256",
          "name": "",
          "type": "uint256"
        }
      ],
      "stateMutability": "view",
      "type": "function"
    },
    {
      "inputs": [
        {
          "internalType": "uint256",
          "name": "_tokenID",
          "type": "uint256"
        }
      ],
      "name": "randParticipants",
      "outputs": [
        {
          "internalType": "uint256",
          "name": "",
          "type": "uint256"
        }
      ],
      "stateMutability": "nonpayable",
      "type": "function"
    },
    {
      "inputs": [
        {
          "internalType": "uint256",
          "name": "tokenID",
          "type": "uint256"
        },
        {
          "internalType": "address",
          "name": "winner",
          "type": "address"
        }
      ],
      "name": "randomDeployNFT",
      "outputs": [],
      "stateMutability": "nonpayable",
      "type": "function"
    },
    {
      "inputs": [
        {
          "internalType": "uint256",
          "name": "_tokenID",
          "type": "uint256"
        }
      ],
      "name": "randomNFTOwner",
      "outputs": [
        {
          "internalType": "address",
          "name": "",
          "type": "address"
        }
      ],
      "stateMutability": "nonpayable",
      "type": "function"
    },
    {
      "inputs": [
        {
          "internalType": "uint256",
          "name": "",
          "type": "uint256"
        },
        {
          "internalType": "uint256",
          "name": "",
          "type": "uint256"
        }
      ],
      "name": "randomParticipants",
      "outputs": [
        {
          "internalType": "address",
          "name": "",
          "type": "address"
        }
      ],
      "stateMutability": "view",
      "type": "function"
    },
    {
      "inputs": [],
      "name": "renounceOwnership",
      "outputs": [],
      "stateMutability": "nonpayable",
      "type": "function"
    },
    {
      "inputs": [
        {
          "internalType": "address",
          "name": "from",
          "type": "address"
        },
        {
          "internalType": "address",
          "name": "to",
          "type": "address"
        },
        {
          "internalType": "uint256",
          "name": "tokenId",
          "type": "uint256"
        }
      ],
      "name": "safeTransferFrom",
      "outputs": [],
      "stateMutability": "nonpayable",
      "type": "function"
    },
    {
      "inputs": [
        {
          "internalType": "address",
          "name": "from",
          "type": "address"
        },
        {
          "internalType": "address",
          "name": "to",
          "type": "address"
        },
        {
          "internalType": "uint256",
          "name": "tokenId",
          "type": "uint256"
        },
        {
          "internalType": "bytes",
          "name": "_data",
          "type": "bytes"
        }
      ],
      "name": "safeTransferFrom",
      "outputs": [],
      "stateMutability": "nonpayable",
      "type": "function"
    },
    {
      "inputs": [
        {
          "internalType": "address",
          "name": "operator",
          "type": "address"
        },
        {
          "internalType": "bool",
          "name": "approved",
          "type": "bool"
        }
      ],
      "name": "setApprovalForAll",
      "outputs": [],
      "stateMutability": "nonpayable",
      "type": "function"
    },
    {
      "inputs": [
        {
          "internalType": "address",
          "name": "account",
          "type": "address"
        }
      ],
      "name": "showNFTList",
      "outputs": [],
      "stateMutability": "nonpayable",
      "type": "function"
    },
    {
      "inputs": [
        {
          "internalType": "bytes4",
          "name": "interfaceId",
          "type": "bytes4"
        }
      ],
      "name": "supportsInterface",
      "outputs": [
        {
          "internalType": "bool",
          "name": "",
          "type": "bool"
        }
      ],
      "stateMutability": "view",
      "type": "function"
    },
    {
      "inputs": [],
      "name": "symbol",
      "outputs": [
        {
          "internalType": "string",
          "name": "",
          "type": "string"
        }
      ],
      "stateMutability": "view",
      "type": "function"
    },
    {
      "inputs": [
        {
          "internalType": "uint256",
          "name": "index",
          "type": "uint256"
        }
      ],
      "name": "tokenByIndex",
      "outputs": [
        {
          "internalType": "uint256",
          "name": "",
          "type": "uint256"
        }
      ],
      "stateMutability": "view",
      "type": "function"
    },
    {
      "inputs": [],
      "name": "tokenID",
      "outputs": [
        {
          "internalType": "uint256",
          "name": "",
          "type": "uint256"
        }
      ],
      "stateMutability": "view",
      "type": "function"
    },
    {
      "inputs": [
        {
          "internalType": "address",
          "name": "owner",
          "type": "address"
        },
        {
          "internalType": "uint256",
          "name": "index",
          "type": "uint256"
        }
      ],
      "name": "tokenOfOwnerByIndex",
      "outputs": [
        {
          "internalType": "uint256",
          "name": "",
          "type": "uint256"
        }
      ],
      "stateMutability": "view",
      "type": "function"
    },
    {
      "inputs": [
        {
          "internalType": "uint256",
          "name": "tokenId",
          "type": "uint256"
        }
      ],
      "name": "tokenURI",
      "outputs": [
        {
          "internalType": "string",
          "name": "",
          "type": "string"
        }
      ],
      "stateMutability": "view",
      "type": "function"
    },
    {
      "inputs": [],
      "name": "totalSupply",
      "outputs": [
        {
          "internalType": "uint256",
          "name": "",
          "type": "uint256"
        }
      ],
      "stateMutability": "view",
      "type": "function"
    },
    {
      "inputs": [
        {
          "internalType": "address",
          "name": "_to",
          "type": "address"
        },
        {
          "internalType": "uint256",
          "name": "_id",
          "type": "uint256"
        }
      ],
      "name": "transfer",
      "outputs": [],
      "stateMutability": "nonpayable",
      "type": "function"
    },
    {
      "inputs": [
        {
          "internalType": "address",
          "name": "from",
          "type": "address"
        },
        {
          "internalType": "address",
          "name": "to",
          "type": "address"
        },
        {
          "internalType": "uint256",
          "name": "tokenId",
          "type": "uint256"
        }
      ],
      "name": "transferFrom",
      "outputs": [],
      "stateMutability": "nonpayable",
      "type": "function"
    },
    {
      "inputs": [
        {
          "internalType": "address",
          "name": "newOwner",
          "type": "address"
        }
      ],
      "name": "transferOwnership",
      "outputs": [],
      "stateMutability": "nonpayable",
      "type": "function"
    }
  ],
  "bytecode": "0x60806040523480156200001157600080fd5b506040518060400160405280600481526020017f74657374000000000000000000000000000000000000000000000000000000008152506040518060400160405280600481526020017f74657374000000000000000000000000000000000000000000000000000000008152506200009e62000092620000e060201b60201c565b620000e860201b60201c565b8160019080519060200190620000b6929190620001ac565b508060029080519060200190620000cf929190620001ac565b5050506000600b81905550620002c1565b600033905090565b60008060009054906101000a900473ffffffffffffffffffffffffffffffffffffffff169050816000806101000a81548173ffffffffffffffffffffffffffffffffffffffff021916908373ffffffffffffffffffffffffffffffffffffffff1602179055508173ffffffffffffffffffffffffffffffffffffffff168173ffffffffffffffffffffffffffffffffffffffff167f8be0079c531659141344cd1fd0a4f28419497f9722a3daafe3b4186f6b6457e060405160405180910390a35050565b828054620001ba906200025c565b90600052602060002090601f016020900481019282620001de57600085556200022a565b82601f10620001f957805160ff19168380011785556200022a565b828001600101855582156200022a579182015b82811115620002295782518255916020019190600101906200020c565b5b5090506200023991906200023d565b5090565b5b80821115620002585760008160009055506001016200023e565b5090565b600060028204905060018216806200027557607f821691505b602082108114156200028c576200028b62000292565b5b50919050565b7f4e487b7100000000000000000000000000000000000000000000000000000000600052602260045260246000fd5b614d5e80620002d16000396000f3fe60806040526004361061021a5760003560e01c80638cb0071e11610123578063b8769ac9116100ab578063d142db8f1161006f578063d142db8f1461087e578063d31acfcb146108a7578063de9ec391146108d0578063e985e9c51461090d578063f2fde38b1461094a5761021a565b8063b8769ac914610761578063b88d4fde1461079e578063bc31c1c1146107c7578063c5cdf2b914610804578063c87b56dd146108415761021a565b806395d89b41116100f257806395d89b411461067c578063a22cb465146106a7578063a5c42ef1146106d0578063a9059cbb146106fb578063b025cc45146107245761021a565b80638cb0071e146105e35780638da5cb5b1461060c5780638f02d5df1461063757806392ca60c1146106605761021a565b806342842e0e116101a657806363fb22941161017557806363fb2294146104d857806370a0823114610515578063715018a614610552578063807fd0a31461056957806381fb1fb4146105a65761021a565b806342842e0e146103f85780634654eba9146104215780634f6ccce71461045e5780636352211e1461049b5761021a565b8063095ea7b3116101ed578063095ea7b3146103015780630bb78ec11461032a57806318160ddd1461036757806323b872dd146103925780632f745c59146103bb5761021a565b806301ffc9a71461021f57806306fdde031461025c57806307bde4f914610287578063081812fc146102c4575b600080fd5b34801561022b57600080fd5b5061024660048036038101906102419190613ac0565b610973565b6040516102539190614539565b60405180910390f35b34801561026857600080fd5b506102716109ed565b60405161027e9190614554565b60405180910390f35b34801561029357600080fd5b506102ae60048036038101906102a99190613bcb565b610a7f565b6040516102bb91906144d2565b60405180910390f35b3480156102d057600080fd5b506102eb60048036038101906102e69190613b66565b610acd565b6040516102f891906144d2565b60405180910390f35b34801561030d57600080fd5b5061032860048036038101906103239190613a84565b610b52565b005b34801561033657600080fd5b50610351600480360381019061034c9190613b66565b610c6a565b60405161035e9190614554565b60405180910390f35b34801561037357600080fd5b5061037c610d0a565b60405161038991906148e9565b60405180910390f35b34801561039e57600080fd5b506103b960048036038101906103b4919061397e565b610d17565b005b3480156103c757600080fd5b506103e260048036038101906103dd9190613a84565b610d77565b6040516103ef91906148e9565b60405180910390f35b34801561040457600080fd5b5061041f600480360381019061041a919061397e565b610e1c565b005b34801561042d57600080fd5b5061044860048036038101906104439190613b66565b610e3c565b60405161045591906148e9565b60405180910390f35b34801561046a57600080fd5b5061048560048036038101906104809190613b66565b610e54565b60405161049291906148e9565b60405180910390f35b3480156104a757600080fd5b506104c260048036038101906104bd9190613b66565b610eeb565b6040516104cf91906144d2565b60405180910390f35b3480156104e457600080fd5b506104ff60048036038101906104fa9190613a84565b610f9d565b60405161050c91906148e9565b60405180910390f35b34801561052157600080fd5b5061053c60048036038101906105379190613919565b610fce565b60405161054991906148e9565b60405180910390f35b34801561055e57600080fd5b50610567611086565b005b34801561057557600080fd5b50610590600480360381019061058b9190613b66565b61110e565b60405161059d91906144d2565b60405180910390f35b3480156105b257600080fd5b506105cd60048036038101906105c89190613bcb565b611141565b6040516105da91906144d2565b60405180910390f35b3480156105ef57600080fd5b5061060a60048036038101906106059190613b12565b61118f565b005b34801561061857600080fd5b50610621611300565b60405161062e91906144d2565b60405180910390f35b34801561064357600080fd5b5061065e60048036038101906106599190613919565b611329565b005b61067a60048036038101906106759190613b66565b61143e565b005b34801561068857600080fd5b5061069161168b565b60405161069e9190614554565b60405180910390f35b3480156106b357600080fd5b506106ce60048036038101906106c99190613a48565b61171d565b005b3480156106dc57600080fd5b506106e5611733565b6040516106f291906148e9565b60405180910390f35b34801561070757600080fd5b50610722600480360381019061071d9190613a84565b611739565b005b34801561073057600080fd5b5061074b60048036038101906107469190613b66565b611748565b60405161075891906148e9565b60405180910390f35b34801561076d57600080fd5b5061078860048036038101906107839190613b66565b611760565b60405161079591906148e9565b60405180910390f35b3480156107aa57600080fd5b506107c560048036038101906107c091906139cd565b6119d4565b005b3480156107d357600080fd5b506107ee60048036038101906107e99190613b66565b611a36565b6040516107fb91906148e9565b60405180910390f35b34801561081057600080fd5b5061082b60048036038101906108269190613b66565b611a4e565b60405161083891906144d2565b60405180910390f35b34801561084d57600080fd5b5061086860048036038101906108639190613b66565b611c6b565b6040516108759190614554565b60405180910390f35b34801561088a57600080fd5b506108a560048036038101906108a09190613b12565b611d12565b005b3480156108b357600080fd5b506108ce60048036038101906108c99190613b8f565b611e17565b005b3480156108dc57600080fd5b506108f760048036038101906108f29190613bcb565b611f2d565b60405161090491906148e9565b60405180910390f35b34801561091957600080fd5b50610934600480360381019061092f9190613942565b611f5e565b6040516109419190614539565b60405180910390f35b34801561095657600080fd5b50610971600480360381019061096c9190613919565b611ff2565b005b60007f780e9d63000000000000000000000000000000000000000000000000000000007bffffffffffffffffffffffffffffffffffffffffffffffffffffffff1916827bffffffffffffffffffffffffffffffffffffffffffffffffffffffff191614806109e657506109e5826120ea565b5b9050919050565b6060600180546109fc90614b49565b80601f0160208091040260200160405190810160405280929190818152602001828054610a2890614b49565b8015610a755780601f10610a4a57610100808354040283529160200191610a75565b820191906000526020600020905b815481529060010190602001808311610a5857829003601f168201915b5050505050905090565b60106020528160005260406000208181548110610a9b57600080fd5b906000526020600020016000915091509054906101000a900473ffffffffffffffffffffffffffffffffffffffff1681565b6000610ad8826121cc565b610b17576040517f08c379a0000000000000000000000000000000000000000000000000000000008152600401610b0e906147a9565b60405180910390fd5b6005600083815260200190815260200160002060009054906101000a900473ffffffffffffffffffffffffffffffffffffffff169050919050565b6000610b5d82610eeb565b90508073ffffffffffffffffffffffffffffffffffffffff168373ffffffffffffffffffffffffffffffffffffffff161415610bce576040517f08c379a0000000000000000000000000000000000000000000000000000000008152600401610bc590614849565b60405180910390fd5b8073ffffffffffffffffffffffffffffffffffffffff16610bed612238565b73ffffffffffffffffffffffffffffffffffffffff161480610c1c5750610c1b81610c16612238565b611f5e565b5b610c5b576040517f08c379a0000000000000000000000000000000000000000000000000000000008152600401610c5290614729565b60405180910390fd5b610c658383612240565b505050565b600c6020528060005260406000206000915090508054610c8990614b49565b80601f0160208091040260200160405190810160405280929190818152602001828054610cb590614b49565b8015610d025780601f10610cd757610100808354040283529160200191610d02565b820191906000526020600020905b815481529060010190602001808311610ce557829003601f168201915b505050505081565b6000600980549050905090565b610d28610d22612238565b826122f9565b610d67576040517f08c379a0000000000000000000000000000000000000000000000000000000008152600401610d5e90614889565b60405180910390fd5b610d728383836123d7565b505050565b6000610d8283610fce565b8210610dc3576040517f08c379a0000000000000000000000000000000000000000000000000000000008152600401610dba90614629565b60405180910390fd5b600760008473ffffffffffffffffffffffffffffffffffffffff1673ffffffffffffffffffffffffffffffffffffffff168152602001908152602001600020600083815260200190815260200160002054905092915050565b610e37838383604051806020016040528060008152506119d4565b505050565b60136020528060005260406000206000915090505481565b6000610e5e610d0a565b8210610e9f576040517f08c379a0000000000000000000000000000000000000000000000000000000008152600401610e96906148a9565b60405180910390fd5b60098281548110610ed9577f4e487b7100000000000000000000000000000000000000000000000000000000600052603260045260246000fd5b90600052602060002001549050919050565b6000806003600084815260200190815260200160002060009054906101000a900473ffffffffffffffffffffffffffffffffffffffff169050600073ffffffffffffffffffffffffffffffffffffffff168173ffffffffffffffffffffffffffffffffffffffff161415610f94576040517f08c379a0000000000000000000000000000000000000000000000000000000008152600401610f8b90614769565b60405180910390fd5b80915050919050565b600d6020528160005260406000208181548110610fb957600080fd5b90600052602060002001600091509150505481565b60008073ffffffffffffffffffffffffffffffffffffffff168273ffffffffffffffffffffffffffffffffffffffff16141561103f576040517f08c379a000000000000000000000000000000000000000000000000000000000815260040161103690614749565b60405180910390fd5b600460008373ffffffffffffffffffffffffffffffffffffffff1673ffffffffffffffffffffffffffffffffffffffff168152602001908152602001600020549050919050565b61108e612238565b73ffffffffffffffffffffffffffffffffffffffff166110ac611300565b73ffffffffffffffffffffffffffffffffffffffff1614611102576040517f08c379a00000000000000000000000000000000000000000000000000000000081526004016110f9906147e9565b60405180910390fd5b61110c6000612633565b565b60146020528060005260406000206000915054906101000a900473ffffffffffffffffffffffffffffffffffffffff1681565b600e602052816000526040600020818154811061115d57600080fd5b906000526020600020016000915091509054906101000a900473ffffffffffffffffffffffffffffffffffffffff1681565b6111a261119a611300565b600b546126f7565b81600c6000600b54815260200190815260200160002090805190602001906111cb92919061373d565b50600d60003373ffffffffffffffffffffffffffffffffffffffff1673ffffffffffffffffffffffffffffffffffffffff168152602001908152602001600020600b549080600181540180825580915050600190039060005260206000200160009091909190915055600e6000828152602001908152602001600020339080600181540180825580915050600190039060005260206000200160009091909190916101000a81548173ffffffffffffffffffffffffffffffffffffffff021916908373ffffffffffffffffffffffffffffffffffffffff160217905550600f6000828152602001908152602001600020600b549080600181540180825580915050600190039060005260206000200160009091909190915055600b60008154809291906112f790614b7b565b91905055505050565b60008060009054906101000a900473ffffffffffffffffffffffffffffffffffffffff16905090565b600061133482610fce565b905060008167ffffffffffffffff811115611378577f4e487b7100000000000000000000000000000000000000000000000000000000600052604160045260246000fd5b6040519080825280602002602001820160405280156113a65781602001602082028036833780820191505090505b509050600d60008473ffffffffffffffffffffffffffffffffffffffff1673ffffffffffffffffffffffffffffffffffffffff16815260200190815260200160002080548060200260200160405190810160405280929190818152602001828054801561143257602002820191906000526020600020905b81548152602001906001019080831161141e575b50505050509050505050565b67016345785d8a0000341015611489576040517f08c379a0000000000000000000000000000000000000000000000000000000008152600401611480906148c9565b60405180910390fd5b60116000828152602001908152602001600020546013600083815260200190815260200160002054106114f1576040517f08c379a00000000000000000000000000000000000000000000000000000000081526004016114e890614869565b60405180910390fd5b42601260008381526020019081526020016000205411611546576040517f08c379a000000000000000000000000000000000000000000000000000000000815260040161153d906147c9565b60405180910390fd5b600e6000828152602001908152602001600020339080600181540180825580915050600190039060005260206000200160009091909190916101000a81548173ffffffffffffffffffffffffffffffffffffffff021916908373ffffffffffffffffffffffffffffffffffffffff16021790555067016345785d8a00006013600083815260200190815260200160002060008282546115e591906149d8565b925050819055506116886040518060400160405280600781526020017f7072696365203a0000000000000000000000000000000000000000000000000081525060116000848152602001908152602001600020546040518060400160405280600a81526020017f66756e64696e67506f740000000000000000000000000000000000000000000081525060136000868152602001908152602001600020546128c5565b50565b60606002805461169a90614b49565b80601f01602080910402602001604051908101604052809291908181526020018280546116c690614b49565b80156117135780601f106116e857610100808354040283529160200191611713565b820191906000526020600020905b8154815290600101906020018083116116f657829003601f168201915b5050505050905090565b61172f611728612238565b8383612967565b5050565b600b5481565b6117443383836123d7565b5050565b60126020528060005260406000206000915090505481565b600080600e60008481526020019081526020016000206000815481106117af577f4e487b7100000000000000000000000000000000000000000000000000000000600052603260045260246000fd5b9060005260206000200160009054906101000a900473ffffffffffffffffffffffffffffffffffffffff1690506000600e60008581526020019081526020016000208054905090506118366040518060400160405280600f81526020017f7061727469636970616e7473436e74000000000000000000000000000000000081525082612ad4565b60005b6001826118469190614a5f565b8110156119555760106000868152602001908152602001600020600e600087815260200190815260200160002060018361188091906149d8565b815481106118b7577f4e487b7100000000000000000000000000000000000000000000000000000000600052603260045260246000fd5b9060005260206000200160009054906101000a900473ffffffffffffffffffffffffffffffffffffffff169080600181540180825580915050600190039060005260206000200160009091909190916101000a81548173ffffffffffffffffffffffffffffffffffffffff021916908373ffffffffffffffffffffffffffffffffffffffff160217905550808061194d90614b7b565b915050611839565b60106000868152602001908152602001600020839080600181540180825580915050600190039060005260206000200160009091909190916101000a81548173ffffffffffffffffffffffffffffffffffffffff021916908373ffffffffffffffffffffffffffffffffffffffff160217905550819350505050919050565b6119e56119df612238565b836122f9565b611a24576040517f08c379a0000000000000000000000000000000000000000000000000000000008152600401611a1b90614889565b60405180910390fd5b611a3084848484612b70565b50505050565b60116020528060005260406000206000915090505481565b6000611a58612238565b73ffffffffffffffffffffffffffffffffffffffff16611a76611300565b73ffffffffffffffffffffffffffffffffffffffff1614611acc576040517f08c379a0000000000000000000000000000000000000000000000000000000008152600401611ac3906147e9565b60405180910390fd5b600067016345785d8a00006011600085815260200190815260200160002054611af59190614a2e565b90506000814244604051602001611b0d9291906144a6565b6040516020818303038152906040528051906020012060001c611b309190614bce565b90506000600e60008681526020019081526020016000208281548110611b7f577f4e487b7100000000000000000000000000000000000000000000000000000000600052603260045260246000fd5b9060005260206000200160009054906101000a900473ffffffffffffffffffffffffffffffffffffffff169050611beb6040518060400160405280600c81526020017f6f776e657241646472657373000000000000000000000000000000000000000081525082612bcc565b806014600087815260200190815260200160002060006101000a81548173ffffffffffffffffffffffffffffffffffffffff021916908373ffffffffffffffffffffffffffffffffffffffff160217905550611c478582612c68565b60006012600087815260200190815260200160002081905550809350505050919050565b6060611c76826121cc565b611cb5576040517f08c379a0000000000000000000000000000000000000000000000000000000008152600401611cac90614829565b60405180910390fd5b6000611cbf612d79565b90506000815111611cdf5760405180602001604052806000815250611d0a565b80611ce984612d90565b604051602001611cfa929190614482565b6040516020818303038152906040525b915050919050565b611d1b82612f3d565b611d2733600b546126f7565b81600c6000600b5481526020019081526020016000209080519060200190611d5092919061373d565b50600d60003373ffffffffffffffffffffffffffffffffffffffff1673ffffffffffffffffffffffffffffffffffffffff168152602001908152602001600020600b5490806001815401808255809150506001900390600052602060002001600090919091909150558060116000600b548152602001908152602001600020819055506201518042611de291906149d8565b60126000600b54815260200190815260200160002081905550600b6000815480929190611e0e90614b7b565b91905055505050565b6000611e2283611760565b9050611e2d81612fd6565b60005b81811015611f2757611f14611e43611300565b601060008781526020019081526020016000208381548110611e8e577f4e487b7100000000000000000000000000000000000000000000000000000000600052603260045260246000fd5b9060005260206000200160009054906101000a900473ffffffffffffffffffffffffffffffffffffffff16600f60008881526020019081526020016000208481548110611f04577f4e487b7100000000000000000000000000000000000000000000000000000000600052603260045260246000fd5b90600052602060002001546123d7565b8080611f1f90614b7b565b915050611e30565b50505050565b600f6020528160005260406000208181548110611f4957600080fd5b90600052602060002001600091509150505481565b6000600660008473ffffffffffffffffffffffffffffffffffffffff1673ffffffffffffffffffffffffffffffffffffffff16815260200190815260200160002060008373ffffffffffffffffffffffffffffffffffffffff1673ffffffffffffffffffffffffffffffffffffffff16815260200190815260200160002060009054906101000a900460ff16905092915050565b611ffa612238565b73ffffffffffffffffffffffffffffffffffffffff16612018611300565b73ffffffffffffffffffffffffffffffffffffffff161461206e576040517f08c379a0000000000000000000000000000000000000000000000000000000008152600401612065906147e9565b60405180910390fd5b600073ffffffffffffffffffffffffffffffffffffffff168173ffffffffffffffffffffffffffffffffffffffff1614156120de576040517f08c379a00000000000000000000000000000000000000000000000000000000081526004016120d590614669565b60405180910390fd5b6120e781612633565b50565b60007f80ac58cd000000000000000000000000000000000000000000000000000000007bffffffffffffffffffffffffffffffffffffffffffffffffffffffff1916827bffffffffffffffffffffffffffffffffffffffffffffffffffffffff191614806121b557507f5b5e139f000000000000000000000000000000000000000000000000000000007bffffffffffffffffffffffffffffffffffffffffffffffffffffffff1916827bffffffffffffffffffffffffffffffffffffffffffffffffffffffff1916145b806121c557506121c48261306f565b5b9050919050565b60008073ffffffffffffffffffffffffffffffffffffffff166003600084815260200190815260200160002060009054906101000a900473ffffffffffffffffffffffffffffffffffffffff1673ffffffffffffffffffffffffffffffffffffffff1614159050919050565b600033905090565b816005600083815260200190815260200160002060006101000a81548173ffffffffffffffffffffffffffffffffffffffff021916908373ffffffffffffffffffffffffffffffffffffffff160217905550808273ffffffffffffffffffffffffffffffffffffffff166122b383610eeb565b73ffffffffffffffffffffffffffffffffffffffff167f8c5be1e5ebec7d5bd14f71427d1e84f3dd0314c0f7b2291e5b200ac8c7c3b92560405160405180910390a45050565b6000612304826121cc565b612343576040517f08c379a000000000000000000000000000000000000000000000000000000000815260040161233a906146e9565b60405180910390fd5b600061234e83610eeb565b90508073ffffffffffffffffffffffffffffffffffffffff168473ffffffffffffffffffffffffffffffffffffffff1614806123bd57508373ffffffffffffffffffffffffffffffffffffffff166123a584610acd565b73ffffffffffffffffffffffffffffffffffffffff16145b806123ce57506123cd8185611f5e565b5b91505092915050565b8273ffffffffffffffffffffffffffffffffffffffff166123f782610eeb565b73ffffffffffffffffffffffffffffffffffffffff161461244d576040517f08c379a000000000000000000000000000000000000000000000000000000000815260040161244490614809565b60405180910390fd5b600073ffffffffffffffffffffffffffffffffffffffff168273ffffffffffffffffffffffffffffffffffffffff1614156124bd576040517f08c379a00000000000000000000000000000000000000000000000000000000081526004016124b4906146a9565b60405180910390fd5b6124c88383836130d9565b6124d3600082612240565b6001600460008573ffffffffffffffffffffffffffffffffffffffff1673ffffffffffffffffffffffffffffffffffffffff16815260200190815260200160002060008282546125239190614a5f565b925050819055506001600460008473ffffffffffffffffffffffffffffffffffffffff1673ffffffffffffffffffffffffffffffffffffffff168152602001908152602001600020600082825461257a91906149d8565b92505081905550816003600083815260200190815260200160002060006101000a81548173ffffffffffffffffffffffffffffffffffffffff021916908373ffffffffffffffffffffffffffffffffffffffff160217905550808273ffffffffffffffffffffffffffffffffffffffff168473ffffffffffffffffffffffffffffffffffffffff167fddf252ad1be2c89b69c2b068fc378daa952ba7f163c4a11628f55a4df523b3ef60405160405180910390a4505050565b60008060009054906101000a900473ffffffffffffffffffffffffffffffffffffffff169050816000806101000a81548173ffffffffffffffffffffffffffffffffffffffff021916908373ffffffffffffffffffffffffffffffffffffffff1602179055508173ffffffffffffffffffffffffffffffffffffffff168173ffffffffffffffffffffffffffffffffffffffff167f8be0079c531659141344cd1fd0a4f28419497f9722a3daafe3b4186f6b6457e060405160405180910390a35050565b600073ffffffffffffffffffffffffffffffffffffffff168273ffffffffffffffffffffffffffffffffffffffff161415612767576040517f08c379a000000000000000000000000000000000000000000000000000000000815260040161275e90614789565b60405180910390fd5b612770816121cc565b156127b0576040517f08c379a00000000000000000000000000000000000000000000000000000000081526004016127a790614689565b60405180910390fd5b6127bc600083836130d9565b6001600460008473ffffffffffffffffffffffffffffffffffffffff1673ffffffffffffffffffffffffffffffffffffffff168152602001908152602001600020600082825461280c91906149d8565b92505081905550816003600083815260200190815260200160002060006101000a81548173ffffffffffffffffffffffffffffffffffffffff021916908373ffffffffffffffffffffffffffffffffffffffff160217905550808273ffffffffffffffffffffffffffffffffffffffff16600073ffffffffffffffffffffffffffffffffffffffff167fddf252ad1be2c89b69c2b068fc378daa952ba7f163c4a11628f55a4df523b3ef60405160405180910390a45050565b612961848484846040516024016128df94939291906145d6565b6040516020818303038152906040527fa0c4b225000000000000000000000000000000000000000000000000000000007bffffffffffffffffffffffffffffffffffffffffffffffffffffffff19166020820180517bffffffffffffffffffffffffffffffffffffffffffffffffffffffff83818316178352505050506131ed565b50505050565b8173ffffffffffffffffffffffffffffffffffffffff168373ffffffffffffffffffffffffffffffffffffffff1614156129d6576040517f08c379a00000000000000000000000000000000000000000000000000000000081526004016129cd906146c9565b60405180910390fd5b80600660008573ffffffffffffffffffffffffffffffffffffffff1673ffffffffffffffffffffffffffffffffffffffff16815260200190815260200160002060008473ffffffffffffffffffffffffffffffffffffffff1673ffffffffffffffffffffffffffffffffffffffff16815260200190815260200160002060006101000a81548160ff0219169083151502179055508173ffffffffffffffffffffffffffffffffffffffff168373ffffffffffffffffffffffffffffffffffffffff167f17307eab39ab6107e8899845ad3d59bd9653f200f220920489ca2b5937696c3183604051612ac79190614539565b60405180910390a3505050565b612b6c8282604051602401612aea9291906145a6565b6040516020818303038152906040527f9710a9d0000000000000000000000000000000000000000000000000000000007bffffffffffffffffffffffffffffffffffffffffffffffffffffffff19166020820180517bffffffffffffffffffffffffffffffffffffffffffffffffffffffff83818316178352505050506131ed565b5050565b612b7b8484846123d7565b612b8784848484613216565b612bc6576040517f08c379a0000000000000000000000000000000000000000000000000000000008152600401612bbd90614649565b60405180910390fd5b50505050565b612c648282604051602401612be2929190614576565b6040516020818303038152906040527f319af333000000000000000000000000000000000000000000000000000000007bffffffffffffffffffffffffffffffffffffffffffffffffffffffff19166020820180517bffffffffffffffffffffffffffffffffffffffffffffffffffffffff83818316178352505050506131ed565b5050565b6000601160008481526020019081526020016000205490506000612c8b84610eeb565b905060136000858152602001908152602001600020548214612ce2576040517f08c379a0000000000000000000000000000000000000000000000000000000008152600401612cd990614709565b60405180910390fd5b612d216040518060400160405280600881526020017f5f746f6b656e494400000000000000000000000000000000000000000000000081525085612ad4565b612d2c8184866123d7565b8073ffffffffffffffffffffffffffffffffffffffff166108fc839081150290604051600060405180830381858888f19350505050158015612d72573d6000803e3d6000fd5b5050505050565b606060405180602001604052806000815250905090565b60606000821415612dd8576040518060400160405280600181526020017f30000000000000000000000000000000000000000000000000000000000000008152509050612f38565b600082905060005b60008214612e0a578080612df390614b7b565b915050600a82612e039190614a2e565b9150612de0565b60008167ffffffffffffffff811115612e4c577f4e487b7100000000000000000000000000000000000000000000000000000000600052604160045260246000fd5b6040519080825280601f01601f191660200182016040528015612e7e5781602001600182028036833780820191505090505b5090505b60008514612f3157600182612e979190614a5f565b9150600a85612ea69190614bce565b6030612eb291906149d8565b60f81b818381518110612eee577f4e487b7100000000000000000000000000000000000000000000000000000000600052603260045260246000fd5b60200101907effffffffffffffffffffffffffffffffffffffffffffffffffffffffffffff1916908160001a905350600a85612f2a9190614a2e565b9450612e82565b8093505050505b919050565b612fd381604051602401612f519190614554565b6040516020818303038152906040527f41304fac000000000000000000000000000000000000000000000000000000007bffffffffffffffffffffffffffffffffffffffffffffffffffffffff19166020820180517bffffffffffffffffffffffffffffffffffffffffffffffffffffffff83818316178352505050506131ed565b50565b61306c81604051602401612fea91906148e9565b6040516020818303038152906040527ff5b1bba9000000000000000000000000000000000000000000000000000000007bffffffffffffffffffffffffffffffffffffffffffffffffffffffff19166020820180517bffffffffffffffffffffffffffffffffffffffffffffffffffffffff83818316178352505050506131ed565b50565b60007f01ffc9a7000000000000000000000000000000000000000000000000000000007bffffffffffffffffffffffffffffffffffffffffffffffffffffffff1916827bffffffffffffffffffffffffffffffffffffffffffffffffffffffff1916149050919050565b6130e48383836133ad565b600073ffffffffffffffffffffffffffffffffffffffff168373ffffffffffffffffffffffffffffffffffffffff16141561312757613122816133b2565b613166565b8173ffffffffffffffffffffffffffffffffffffffff168373ffffffffffffffffffffffffffffffffffffffff16146131655761316483826133fb565b5b5b600073ffffffffffffffffffffffffffffffffffffffff168273ffffffffffffffffffffffffffffffffffffffff1614156131a9576131a481613568565b6131e8565b8273ffffffffffffffffffffffffffffffffffffffff168273ffffffffffffffffffffffffffffffffffffffff16146131e7576131e682826136ab565b5b5b505050565b60008151905060006a636f6e736f6c652e6c6f679050602083016000808483855afa5050505050565b60006132378473ffffffffffffffffffffffffffffffffffffffff1661372a565b156133a0578373ffffffffffffffffffffffffffffffffffffffff1663150b7a02613260612238565b8786866040518563ffffffff1660e01b815260040161328294939291906144ed565b602060405180830381600087803b15801561329c57600080fd5b505af19250505080156132cd57506040513d601f19601f820116820180604052508101906132ca9190613ae9565b60015b613350573d80600081146132fd576040519150601f19603f3d011682016040523d82523d6000602084013e613302565b606091505b50600081511415613348576040517f08c379a000000000000000000000000000000000000000000000000000000000815260040161333f90614649565b60405180910390fd5b805181602001fd5b63150b7a0260e01b7bffffffffffffffffffffffffffffffffffffffffffffffffffffffff1916817bffffffffffffffffffffffffffffffffffffffffffffffffffffffff1916149150506133a5565b600190505b949350505050565b505050565b600980549050600a600083815260200190815260200160002081905550600981908060018154018082558091505060019003906000526020600020016000909190919091505550565b6000600161340884610fce565b6134129190614a5f565b90506000600860008481526020019081526020016000205490508181146134f7576000600760008673ffffffffffffffffffffffffffffffffffffffff1673ffffffffffffffffffffffffffffffffffffffff168152602001908152602001600020600084815260200190815260200160002054905080600760008773ffffffffffffffffffffffffffffffffffffffff1673ffffffffffffffffffffffffffffffffffffffff168152602001908152602001600020600084815260200190815260200160002081905550816008600083815260200190815260200160002081905550505b6008600084815260200190815260200160002060009055600760008573ffffffffffffffffffffffffffffffffffffffff1673ffffffffffffffffffffffffffffffffffffffff16815260200190815260200160002060008381526020019081526020016000206000905550505050565b6000600160098054905061357c9190614a5f565b90506000600a60008481526020019081526020016000205490506000600983815481106135d2577f4e487b7100000000000000000000000000000000000000000000000000000000600052603260045260246000fd5b90600052602060002001549050806009838154811061361a577f4e487b7100000000000000000000000000000000000000000000000000000000600052603260045260246000fd5b906000526020600020018190555081600a600083815260200190815260200160002081905550600a600085815260200190815260200160002060009055600980548061368f577f4e487b7100000000000000000000000000000000000000000000000000000000600052603160045260246000fd5b6001900381819060005260206000200160009055905550505050565b60006136b683610fce565b905081600760008573ffffffffffffffffffffffffffffffffffffffff1673ffffffffffffffffffffffffffffffffffffffff168152602001908152602001600020600083815260200190815260200160002081905550806008600084815260200190815260200160002081905550505050565b600080823b905060008111915050919050565b82805461374990614b49565b90600052602060002090601f01602090048101928261376b57600085556137b2565b82601f1061378457805160ff19168380011785556137b2565b828001600101855582156137b2579182015b828111156137b1578251825591602001919060010190613796565b5b5090506137bf91906137c3565b5090565b5b808211156137dc5760008160009055506001016137c4565b5090565b60006137f36137ee84614935565b614904565b90508281526020810184848401111561380b57600080fd5b613816848285614b07565b509392505050565b600061383161382c84614965565b614904565b90508281526020810184848401111561384957600080fd5b613854848285614b07565b509392505050565b60008135905061386b81614ccc565b92915050565b60008135905061388081614ce3565b92915050565b60008135905061389581614cfa565b92915050565b6000815190506138aa81614cfa565b92915050565b600082601f8301126138c157600080fd5b81356138d18482602086016137e0565b91505092915050565b600082601f8301126138eb57600080fd5b81356138fb84826020860161381e565b91505092915050565b60008135905061391381614d11565b92915050565b60006020828403121561392b57600080fd5b60006139398482850161385c565b91505092915050565b6000806040838503121561395557600080fd5b60006139638582860161385c565b92505060206139748582860161385c565b9150509250929050565b60008060006060848603121561399357600080fd5b60006139a18682870161385c565b93505060206139b28682870161385c565b92505060406139c386828701613904565b9150509250925092565b600080600080608085870312156139e357600080fd5b60006139f18782880161385c565b9450506020613a028782880161385c565b9350506040613a1387828801613904565b925050606085013567ffffffffffffffff811115613a3057600080fd5b613a3c878288016138b0565b91505092959194509250565b60008060408385031215613a5b57600080fd5b6000613a698582860161385c565b9250506020613a7a85828601613871565b9150509250929050565b60008060408385031215613a9757600080fd5b6000613aa58582860161385c565b9250506020613ab685828601613904565b9150509250929050565b600060208284031215613ad257600080fd5b6000613ae084828501613886565b91505092915050565b600060208284031215613afb57600080fd5b6000613b098482850161389b565b91505092915050565b60008060408385031215613b2557600080fd5b600083013567ffffffffffffffff811115613b3f57600080fd5b613b4b858286016138da565b9250506020613b5c85828601613904565b9150509250929050565b600060208284031215613b7857600080fd5b6000613b8684828501613904565b91505092915050565b60008060408385031215613ba257600080fd5b6000613bb085828601613904565b9250506020613bc18582860161385c565b9150509250929050565b60008060408385031215613bde57600080fd5b6000613bec85828601613904565b9250506020613bfd85828601613904565b9150509250929050565b613c1081614a93565b82525050565b613c1f81614aa5565b82525050565b6000613c3082614995565b613c3a81856149ab565b9350613c4a818560208601614b16565b613c5381614cbb565b840191505092915050565b6000613c69826149a0565b613c7381856149bc565b9350613c83818560208601614b16565b613c8c81614cbb565b840191505092915050565b6000613ca2826149a0565b613cac81856149cd565b9350613cbc818560208601614b16565b80840191505092915050565b6000613cd5602b836149bc565b91507f455243373231456e756d657261626c653a206f776e657220696e646578206f7560008301527f74206f6620626f756e64730000000000000000000000000000000000000000006020830152604082019050919050565b6000613d3b6032836149bc565b91507f4552433732313a207472616e7366657220746f206e6f6e20455243373231526560008301527f63656976657220696d706c656d656e74657200000000000000000000000000006020830152604082019050919050565b6000613da16026836149bc565b91507f4f776e61626c653a206e6577206f776e657220697320746865207a65726f206160008301527f64647265737300000000000000000000000000000000000000000000000000006020830152604082019050919050565b6000613e07601c836149bc565b91507f4552433732313a20746f6b656e20616c7265616479206d696e746564000000006000830152602082019050919050565b6000613e476024836149bc565b91507f4552433732313a207472616e7366657220746f20746865207a65726f2061646460008301527f72657373000000000000000000000000000000000000000000000000000000006020830152604082019050919050565b6000613ead6019836149bc565b91507f4552433732313a20617070726f766520746f2063616c6c6572000000000000006000830152602082019050919050565b6000613eed602c836149bc565b91507f4552433732313a206f70657261746f7220717565727920666f72206e6f6e657860008301527f697374656e7420746f6b656e00000000000000000000000000000000000000006020830152604082019050919050565b6000613f536013836149bc565b91507f7072696365206973206e6f7420657175616c21000000000000000000000000006000830152602082019050919050565b6000613f936038836149bc565b91507f4552433732313a20617070726f76652063616c6c6572206973206e6f74206f7760008301527f6e6572206e6f7220617070726f76656420666f7220616c6c00000000000000006020830152604082019050919050565b6000613ff9602a836149bc565b91507f4552433732313a2062616c616e636520717565727920666f7220746865207a6560008301527f726f2061646472657373000000000000000000000000000000000000000000006020830152604082019050919050565b600061405f6029836149bc565b91507f4552433732313a206f776e657220717565727920666f72206e6f6e657869737460008301527f656e7420746f6b656e00000000000000000000000000000000000000000000006020830152604082019050919050565b60006140c56020836149bc565b91507f4552433732313a206d696e7420746f20746865207a65726f20616464726573736000830152602082019050919050565b6000614105602c836149bc565b91507f4552433732313a20617070726f76656420717565727920666f72206e6f6e657860008301527f697374656e7420746f6b656e00000000000000000000000000000000000000006020830152604082019050919050565b600061416b601f836149bc565b91507f46756e64696e6720456e64203a20526561636820746f20446561644c696e65006000830152602082019050919050565b60006141ab6020836149bc565b91507f4f776e61626c653a2063616c6c6572206973206e6f7420746865206f776e65726000830152602082019050919050565b60006141eb6029836149bc565b91507f4552433732313a207472616e73666572206f6620746f6b656e2074686174206960008301527f73206e6f74206f776e00000000000000000000000000000000000000000000006020830152604082019050919050565b6000614251602f836149bc565b91507f4552433732314d657461646174613a2055524920717565727920666f72206e6f60008301527f6e6578697374656e7420746f6b656e00000000000000000000000000000000006020830152604082019050919050565b60006142b76021836149bc565b91507f4552433732313a20617070726f76616c20746f2063757272656e74206f776e6560008301527f72000000000000000000000000000000000000000000000000000000000000006020830152604082019050919050565b600061431d600f836149bc565b91507f46756e64696e67205375636365737300000000000000000000000000000000006000830152602082019050919050565b600061435d6031836149bc565b91507f4552433732313a207472616e736665722063616c6c6572206973206e6f74206f60008301527f776e6572206e6f7220617070726f7665640000000000000000000000000000006020830152604082019050919050565b60006143c3602c836149bc565b91507f455243373231456e756d657261626c653a20676c6f62616c20696e646578206f60008301527f7574206f6620626f756e647300000000000000000000000000000000000000006020830152604082019050919050565b6000614429601c836149bc565b91507f46756e64696e67204661696c2c2062616c616e6365206973206c6f77000000006000830152602082019050919050565b61446581614afd565b82525050565b61447c61447782614afd565b614bc4565b82525050565b600061448e8285613c97565b915061449a8284613c97565b91508190509392505050565b60006144b2828561446b565b6020820191506144c2828461446b565b6020820191508190509392505050565b60006020820190506144e76000830184613c07565b92915050565b60006080820190506145026000830187613c07565b61450f6020830186613c07565b61451c604083018561445c565b818103606083015261452e8184613c25565b905095945050505050565b600060208201905061454e6000830184613c16565b92915050565b6000602082019050818103600083015261456e8184613c5e565b905092915050565b600060408201905081810360008301526145908185613c5e565b905061459f6020830184613c07565b9392505050565b600060408201905081810360008301526145c08185613c5e565b90506145cf602083018461445c565b9392505050565b600060808201905081810360008301526145f08187613c5e565b90506145ff602083018661445c565b81810360408301526146118185613c5e565b9050614620606083018461445c565b95945050505050565b6000602082019050818103600083015261464281613cc8565b9050919050565b6000602082019050818103600083015261466281613d2e565b9050919050565b6000602082019050818103600083015261468281613d94565b9050919050565b600060208201905081810360008301526146a281613dfa565b9050919050565b600060208201905081810360008301526146c281613e3a565b9050919050565b600060208201905081810360008301526146e281613ea0565b9050919050565b6000602082019050818103600083015261470281613ee0565b9050919050565b6000602082019050818103600083015261472281613f46565b9050919050565b6000602082019050818103600083015261474281613f86565b9050919050565b6000602082019050818103600083015261476281613fec565b9050919050565b6000602082019050818103600083015261478281614052565b9050919050565b600060208201905081810360008301526147a2816140b8565b9050919050565b600060208201905081810360008301526147c2816140f8565b9050919050565b600060208201905081810360008301526147e28161415e565b9050919050565b600060208201905081810360008301526148028161419e565b9050919050565b60006020820190508181036000830152614822816141de565b9050919050565b6000602082019050818103600083015261484281614244565b9050919050565b60006020820190508181036000830152614862816142aa565b9050919050565b6000602082019050818103600083015261488281614310565b9050919050565b600060208201905081810360008301526148a281614350565b9050919050565b600060208201905081810360008301526148c2816143b6565b9050919050565b600060208201905081810360008301526148e28161441c565b9050919050565b60006020820190506148fe600083018461445c565b92915050565b6000604051905081810181811067ffffffffffffffff8211171561492b5761492a614c8c565b5b8060405250919050565b600067ffffffffffffffff8211156149505761494f614c8c565b5b601f19601f8301169050602081019050919050565b600067ffffffffffffffff8211156149805761497f614c8c565b5b601f19601f8301169050602081019050919050565b600081519050919050565b600081519050919050565b600082825260208201905092915050565b600082825260208201905092915050565b600081905092915050565b60006149e382614afd565b91506149ee83614afd565b9250827fffffffffffffffffffffffffffffffffffffffffffffffffffffffffffffffff03821115614a2357614a22614bff565b5b828201905092915050565b6000614a3982614afd565b9150614a4483614afd565b925082614a5457614a53614c2e565b5b828204905092915050565b6000614a6a82614afd565b9150614a7583614afd565b925082821015614a8857614a87614bff565b5b828203905092915050565b6000614a9e82614add565b9050919050565b60008115159050919050565b60007fffffffff0000000000000000000000000000000000000000000000000000000082169050919050565b600073ffffffffffffffffffffffffffffffffffffffff82169050919050565b6000819050919050565b82818337600083830152505050565b60005b83811015614b34578082015181840152602081019050614b19565b83811115614b43576000848401525b50505050565b60006002820490506001821680614b6157607f821691505b60208210811415614b7557614b74614c5d565b5b50919050565b6000614b8682614afd565b91507fffffffffffffffffffffffffffffffffffffffffffffffffffffffffffffffff821415614bb957614bb8614bff565b5b600182019050919050565b6000819050919050565b6000614bd982614afd565b9150614be483614afd565b925082614bf457614bf3614c2e565b5b828206905092915050565b7f4e487b7100000000000000000000000000000000000000000000000000000000600052601160045260246000fd5b7f4e487b7100000000000000000000000000000000000000000000000000000000600052601260045260246000fd5b7f4e487b7100000000000000000000000000000000000000000000000000000000600052602260045260246000fd5b7f4e487b7100000000000000000000000000000000000000000000000000000000600052604160045260246000fd5b6000601f19601f8301169050919050565b614cd581614a93565b8114614ce057600080fd5b50565b614cec81614aa5565b8114614cf757600080fd5b50565b614d0381614ab1565b8114614d0e57600080fd5b50565b614d1a81614afd565b8114614d2557600080fd5b5056fea26469706673582212208a5936603f07987e00bd3ee816102b78b09dd606809b2f326a1216cbee78c6e064736f6c63430008000033",
  "linkReferences": {},
  "deployedLinkReferences": {}
}