{
  "_format": "hh-sol-artifact-1",
  "contractName": "MyNFT",
  "sourceName": "contracts/MyNFT.sol",
  "abi": [
    {
      "inputs": [],
      "stateMutability": "nonpayable",
      "type": "constructor"
    },
    {
      "anonymous": false,
      "inputs": [
        {
          "indexed": true,
          "internalType": "address",
          "name": "owner",
          "type": "address"
        },
        {
          "indexed": true,
          "internalType": "address",
          "name": "approved",
          "type": "address"
        },
        {
          "indexed": true,
          "internalType": "uint256",
          "name": "tokenId",
          "type": "uint256"
        }
      ],
      "name": "Approval",
      "type": "event"
    },
    {
      "anonymous": false,
      "inputs": [
        {
          "indexed": true,
          "internalType": "address",
          "name": "owner",
          "type": "address"
        },
        {
          "indexed": true,
          "internalType": "address",
          "name": "operator",
          "type": "address"
        },
        {
          "indexed": false,
          "internalType": "bool",
          "name": "approved",
          "type": "bool"
        }
      ],
      "name": "ApprovalForAll",
      "type": "event"
    },
    {
      "anonymous": false,
      "inputs": [
        {
          "indexed": true,
          "internalType": "address",
          "name": "previousOwner",
          "type": "address"
        },
        {
          "indexed": true,
          "internalType": "address",
          "name": "newOwner",
          "type": "address"
        }
      ],
      "name": "OwnershipTransferred",
      "type": "event"
    },
    {
      "anonymous": false,
      "inputs": [
        {
          "indexed": true,
          "internalType": "address",
          "name": "from",
          "type": "address"
        },
        {
          "indexed": true,
          "internalType": "address",
          "name": "to",
          "type": "address"
        },
        {
          "indexed": true,
          "internalType": "uint256",
          "name": "tokenId",
          "type": "uint256"
        }
      ],
      "name": "Transfer",
      "type": "event"
    },
    {
      "inputs": [
        {
          "internalType": "address",
          "name": "",
          "type": "address"
        },
        {
          "internalType": "uint256",
          "name": "",
          "type": "uint256"
        }
      ],
      "name": "_tokenOwners",
      "outputs": [
        {
          "internalType": "uint256",
          "name": "",
          "type": "uint256"
        }
      ],
      "stateMutability": "view",
      "type": "function"
    },
    {
      "inputs": [
        {
          "internalType": "uint256",
          "name": "",
          "type": "uint256"
        }
      ],
      "name": "_tokenURIs",
      "outputs": [
        {
          "internalType": "string",
          "name": "",
          "type": "string"
        }
      ],
      "stateMutability": "view",
      "type": "function"
    },
    {
      "inputs": [
        {
          "internalType": "address",
          "name": "to",
          "type": "address"
        },
        {
          "internalType": "uint256",
          "name": "tokenId",
          "type": "uint256"
        }
      ],
      "name": "approve",
      "outputs": [],
      "stateMutability": "nonpayable",
      "type": "function"
    },
    {
      "inputs": [
        {
          "internalType": "address",
          "name": "owner",
          "type": "address"
        }
      ],
      "name": "balanceOf",
      "outputs": [
        {
          "internalType": "uint256",
          "name": "",
          "type": "uint256"
        }
      ],
      "stateMutability": "view",
      "type": "function"
    },
    {
      "inputs": [
        {
          "internalType": "uint256",
          "name": "tokenId",
          "type": "uint256"
        }
      ],
      "name": "getApproved",
      "outputs": [
        {
          "internalType": "address",
          "name": "",
          "type": "address"
        }
      ],
      "stateMutability": "view",
      "type": "function"
    },
    {
      "inputs": [
        {
          "internalType": "address",
          "name": "owner",
          "type": "address"
        },
        {
          "internalType": "address",
          "name": "operator",
          "type": "address"
        }
      ],
      "name": "isApprovedForAll",
      "outputs": [
        {
          "internalType": "bool",
          "name": "",
          "type": "bool"
        }
      ],
      "stateMutability": "view",
      "type": "function"
    },
    {
      "inputs": [
        {
          "internalType": "string",
          "name": "tokenURI",
          "type": "string"
        },
        {
          "internalType": "uint256",
          "name": "_tokenId",
          "type": "uint256"
        }
      ],
      "name": "mintMynft",
      "outputs": [],
      "stateMutability": "nonpayable",
      "type": "function"
    },
    {
      "inputs": [],
      "name": "name",
      "outputs": [
        {
          "internalType": "string",
          "name": "",
          "type": "string"
        }
      ],
      "stateMutability": "view",
      "type": "function"
    },
    {
      "inputs": [],
      "name": "owner",
      "outputs": [
        {
          "internalType": "address",
          "name": "",
          "type": "address"
        }
      ],
      "stateMutability": "view",
      "type": "function"
    },
    {
      "inputs": [
        {
          "internalType": "uint256",
          "name": "tokenId",
          "type": "uint256"
        }
      ],
      "name": "ownerOf",
      "outputs": [
        {
          "internalType": "address",
          "name": "",
          "type": "address"
        }
      ],
      "stateMutability": "view",
      "type": "function"
    },
    {
      "inputs": [
        {
          "internalType": "uint256",
          "name": "",
          "type": "uint256"
        },
        {
          "internalType": "uint256",
          "name": "",
          "type": "uint256"
        }
      ],
      "name": "participants",
      "outputs": [
        {
          "internalType": "address",
          "name": "",
          "type": "address"
        }
      ],
      "stateMutability": "view",
      "type": "function"
    },
    {
      "inputs": [
        {
          "internalType": "uint256",
          "name": "",
          "type": "uint256"
        },
        {
          "internalType": "uint256",
          "name": "",
          "type": "uint256"
        }
      ],
      "name": "participateTokens",
      "outputs": [
        {
          "internalType": "uint256",
          "name": "",
          "type": "uint256"
        }
      ],
      "stateMutability": "view",
      "type": "function"
    },
    {
      "inputs": [
        {
          "internalType": "uint256",
          "name": "_tokenID",
          "type": "uint256"
        }
      ],
      "name": "randParticipants",
      "outputs": [
        {
          "internalType": "uint256",
          "name": "",
          "type": "uint256"
        }
      ],
      "stateMutability": "nonpayable",
      "type": "function"
    },
    {
      "inputs": [
        {
          "internalType": "uint256",
          "name": "tokenID",
          "type": "uint256"
        },
        {
          "internalType": "address",
          "name": "winner",
          "type": "address"
        }
      ],
      "name": "randomDeployNFT",
      "outputs": [],
      "stateMutability": "nonpayable",
      "type": "function"
    },
    {
      "inputs": [
        {
          "internalType": "uint256",
          "name": "",
          "type": "uint256"
        },
        {
          "internalType": "uint256",
          "name": "",
          "type": "uint256"
        }
      ],
      "name": "randomParticipants",
      "outputs": [
        {
          "internalType": "address",
          "name": "",
          "type": "address"
        }
      ],
      "stateMutability": "view",
      "type": "function"
    },
    {
      "inputs": [],
      "name": "renounceOwnership",
      "outputs": [],
      "stateMutability": "nonpayable",
      "type": "function"
    },
    {
      "inputs": [
        {
          "internalType": "address",
          "name": "from",
          "type": "address"
        },
        {
          "internalType": "address",
          "name": "to",
          "type": "address"
        },
        {
          "internalType": "uint256",
          "name": "tokenId",
          "type": "uint256"
        }
      ],
      "name": "safeTransferFrom",
      "outputs": [],
      "stateMutability": "nonpayable",
      "type": "function"
    },
    {
      "inputs": [
        {
          "internalType": "address",
          "name": "from",
          "type": "address"
        },
        {
          "internalType": "address",
          "name": "to",
          "type": "address"
        },
        {
          "internalType": "uint256",
          "name": "tokenId",
          "type": "uint256"
        },
        {
          "internalType": "bytes",
          "name": "_data",
          "type": "bytes"
        }
      ],
      "name": "safeTransferFrom",
      "outputs": [],
      "stateMutability": "nonpayable",
      "type": "function"
    },
    {
      "inputs": [
        {
          "internalType": "address",
          "name": "operator",
          "type": "address"
        },
        {
          "internalType": "bool",
          "name": "approved",
          "type": "bool"
        }
      ],
      "name": "setApprovalForAll",
      "outputs": [],
      "stateMutability": "nonpayable",
      "type": "function"
    },
    {
      "inputs": [
        {
          "internalType": "address",
          "name": "account",
          "type": "address"
        }
      ],
      "name": "showNFTList",
      "outputs": [],
      "stateMutability": "nonpayable",
      "type": "function"
    },
    {
      "inputs": [
        {
          "internalType": "bytes4",
          "name": "interfaceId",
          "type": "bytes4"
        }
      ],
      "name": "supportsInterface",
      "outputs": [
        {
          "internalType": "bool",
          "name": "",
          "type": "bool"
        }
      ],
      "stateMutability": "view",
      "type": "function"
    },
    {
      "inputs": [],
      "name": "symbol",
      "outputs": [
        {
          "internalType": "string",
          "name": "",
          "type": "string"
        }
      ],
      "stateMutability": "view",
      "type": "function"
    },
    {
      "inputs": [
        {
          "internalType": "uint256",
          "name": "index",
          "type": "uint256"
        }
      ],
      "name": "tokenByIndex",
      "outputs": [
        {
          "internalType": "uint256",
          "name": "",
          "type": "uint256"
        }
      ],
      "stateMutability": "view",
      "type": "function"
    },
    {
      "inputs": [],
      "name": "tokenID",
      "outputs": [
        {
          "internalType": "uint256",
          "name": "",
          "type": "uint256"
        }
      ],
      "stateMutability": "view",
      "type": "function"
    },
    {
      "inputs": [
        {
          "internalType": "address",
          "name": "owner",
          "type": "address"
        },
        {
          "internalType": "uint256",
          "name": "index",
          "type": "uint256"
        }
      ],
      "name": "tokenOfOwnerByIndex",
      "outputs": [
        {
          "internalType": "uint256",
          "name": "",
          "type": "uint256"
        }
      ],
      "stateMutability": "view",
      "type": "function"
    },
    {
      "inputs": [
        {
          "internalType": "uint256",
          "name": "tokenId",
          "type": "uint256"
        }
      ],
      "name": "tokenURI",
      "outputs": [
        {
          "internalType": "string",
          "name": "",
          "type": "string"
        }
      ],
      "stateMutability": "view",
      "type": "function"
    },
    {
      "inputs": [],
      "name": "totalSupply",
      "outputs": [
        {
          "internalType": "uint256",
          "name": "",
          "type": "uint256"
        }
      ],
      "stateMutability": "view",
      "type": "function"
    },
    {
      "inputs": [
        {
          "internalType": "address",
          "name": "_to",
          "type": "address"
        },
        {
          "internalType": "uint256",
          "name": "_id",
          "type": "uint256"
        }
      ],
      "name": "transfer",
      "outputs": [],
      "stateMutability": "nonpayable",
      "type": "function"
    },
    {
      "inputs": [
        {
          "internalType": "address",
          "name": "from",
          "type": "address"
        },
        {
          "internalType": "address",
          "name": "to",
          "type": "address"
        },
        {
          "internalType": "uint256",
          "name": "tokenId",
          "type": "uint256"
        }
      ],
      "name": "transferFrom",
      "outputs": [],
      "stateMutability": "nonpayable",
      "type": "function"
    },
    {
      "inputs": [
        {
          "internalType": "address",
          "name": "newOwner",
          "type": "address"
        }
      ],
      "name": "transferOwnership",
      "outputs": [],
      "stateMutability": "nonpayable",
      "type": "function"
    }
  ],
  "bytecode": "0x60806040523480156200001157600080fd5b506040518060400160405280600481526020017f74657374000000000000000000000000000000000000000000000000000000008152506040518060400160405280600481526020017f74657374000000000000000000000000000000000000000000000000000000008152506200009e62000092620000e060201b60201c565b620000e860201b60201c565b8160019080519060200190620000b6929190620001ac565b508060029080519060200190620000cf929190620001ac565b5050506000600b81905550620002c1565b600033905090565b60008060009054906101000a900473ffffffffffffffffffffffffffffffffffffffff169050816000806101000a81548173ffffffffffffffffffffffffffffffffffffffff021916908373ffffffffffffffffffffffffffffffffffffffff1602179055508173ffffffffffffffffffffffffffffffffffffffff168173ffffffffffffffffffffffffffffffffffffffff167f8be0079c531659141344cd1fd0a4f28419497f9722a3daafe3b4186f6b6457e060405160405180910390a35050565b828054620001ba906200025c565b90600052602060002090601f016020900481019282620001de57600085556200022a565b82601f10620001f957805160ff19168380011785556200022a565b828001600101855582156200022a579182015b82811115620002295782518255916020019190600101906200020c565b5b5090506200023991906200023d565b5090565b5b80821115620002585760008160009055506001016200023e565b5090565b600060028204905060018216806200027557607f821691505b602082108114156200028c576200028b62000292565b5b50919050565b7f4e487b7100000000000000000000000000000000000000000000000000000000600052602260045260246000fd5b613f0080620002d16000396000f3fe608060405234801561001057600080fd5b50600436106101da5760003560e01c806381fb1fb411610104578063a9059cbb116100a2578063d31acfcb11610071578063d31acfcb1461059f578063de9ec391146105bb578063e985e9c5146105eb578063f2fde38b1461061b576101da565b8063a9059cbb14610507578063b8769ac914610523578063b88d4fde14610553578063c87b56dd1461056f576101da565b80638f02d5df116100de5780638f02d5df1461049357806395d89b41146104af578063a22cb465146104cd578063a5c42ef1146104e9576101da565b806381fb1fb4146104295780638cb0071e146104595780638da5cb5b14610475576101da565b806323b872dd1161017c5780636352211e1161014b5780636352211e1461038f57806363fb2294146103bf57806370a08231146103ef578063715018a61461041f576101da565b806323b872dd146102f75780632f745c591461031357806342842e0e146103435780634f6ccce71461035f576101da565b8063081812fc116101b8578063081812fc1461025d578063095ea7b31461028d5780630bb78ec1146102a957806318160ddd146102d9576101da565b806301ffc9a7146101df57806306fdde031461020f57806307bde4f91461022d575b600080fd5b6101f960048036038101906101f49190612eb2565b610637565b60405161020691906137e8565b60405180910390f35b6102176106b1565b6040516102249190613803565b60405180910390f35b61024760048036038101906102429190612fbd565b610743565b6040516102549190613781565b60405180910390f35b61027760048036038101906102729190612f58565b610791565b6040516102849190613781565b60405180910390f35b6102a760048036038101906102a29190612e76565b610816565b005b6102c360048036038101906102be9190612f58565b61092e565b6040516102d09190613803565b60405180910390f35b6102e16109ce565b6040516102ee9190613a95565b60405180910390f35b610311600480360381019061030c9190612d70565b6109db565b005b61032d60048036038101906103289190612e76565b610a3b565b60405161033a9190613a95565b60405180910390f35b61035d60048036038101906103589190612d70565b610ae0565b005b61037960048036038101906103749190612f58565b610b00565b6040516103869190613a95565b60405180910390f35b6103a960048036038101906103a49190612f58565b610b97565b6040516103b69190613781565b60405180910390f35b6103d960048036038101906103d49190612e76565b610c49565b6040516103e69190613a95565b60405180910390f35b61040960048036038101906104049190612d0b565b610c7a565b6040516104169190613a95565b60405180910390f35b610427610d32565b005b610443600480360381019061043e9190612fbd565b610dba565b6040516104509190613781565b60405180910390f35b610473600480360381019061046e9190612f04565b610e08565b005b61047d610f79565b60405161048a9190613781565b60405180910390f35b6104ad60048036038101906104a89190612d0b565b610fa2565b005b6104b76110b7565b6040516104c49190613803565b60405180910390f35b6104e760048036038101906104e29190612e3a565b611149565b005b6104f161115f565b6040516104fe9190613a95565b60405180910390f35b610521600480360381019061051c9190612e76565b611165565b005b61053d60048036038101906105389190612f58565b611174565b60405161054a9190613a95565b60405180910390f35b61056d60048036038101906105689190612dbf565b6113e8565b005b61058960048036038101906105849190612f58565b61144a565b6040516105969190613803565b60405180910390f35b6105b960048036038101906105b49190612f81565b6114f1565b005b6105d560048036038101906105d09190612fbd565b611607565b6040516105e29190613a95565b60405180910390f35b61060560048036038101906106009190612d34565b611638565b60405161061291906137e8565b60405180910390f35b61063560048036038101906106309190612d0b565b6116cc565b005b60007f780e9d63000000000000000000000000000000000000000000000000000000007bffffffffffffffffffffffffffffffffffffffffffffffffffffffff1916827bffffffffffffffffffffffffffffffffffffffffffffffffffffffff191614806106aa57506106a9826117c4565b5b9050919050565b6060600180546106c090613cf5565b80601f01602080910402602001604051908101604052809291908181526020018280546106ec90613cf5565b80156107395780601f1061070e57610100808354040283529160200191610739565b820191906000526020600020905b81548152906001019060200180831161071c57829003601f168201915b5050505050905090565b6010602052816000526040600020818154811061075f57600080fd5b906000526020600020016000915091509054906101000a900473ffffffffffffffffffffffffffffffffffffffff1681565b600061079c826118a6565b6107db576040517f08c379a00000000000000000000000000000000000000000000000000000000081526004016107d2906139b5565b60405180910390fd5b6005600083815260200190815260200160002060009054906101000a900473ffffffffffffffffffffffffffffffffffffffff169050919050565b600061082182610b97565b90508073ffffffffffffffffffffffffffffffffffffffff168373ffffffffffffffffffffffffffffffffffffffff161415610892576040517f08c379a000000000000000000000000000000000000000000000000000000000815260040161088990613a35565b60405180910390fd5b8073ffffffffffffffffffffffffffffffffffffffff166108b1611912565b73ffffffffffffffffffffffffffffffffffffffff1614806108e057506108df816108da611912565b611638565b5b61091f576040517f08c379a000000000000000000000000000000000000000000000000000000000815260040161091690613935565b60405180910390fd5b610929838361191a565b505050565b600c602052806000526040600020600091509050805461094d90613cf5565b80601f016020809104026020016040519081016040528092919081815260200182805461097990613cf5565b80156109c65780601f1061099b576101008083540402835291602001916109c6565b820191906000526020600020905b8154815290600101906020018083116109a957829003601f168201915b505050505081565b6000600980549050905090565b6109ec6109e6611912565b826119d3565b610a2b576040517f08c379a0000000000000000000000000000000000000000000000000000000008152600401610a2290613a55565b60405180910390fd5b610a36838383611ab1565b505050565b6000610a4683610c7a565b8210610a87576040517f08c379a0000000000000000000000000000000000000000000000000000000008152600401610a7e90613855565b60405180910390fd5b600760008473ffffffffffffffffffffffffffffffffffffffff1673ffffffffffffffffffffffffffffffffffffffff168152602001908152602001600020600083815260200190815260200160002054905092915050565b610afb838383604051806020016040528060008152506113e8565b505050565b6000610b0a6109ce565b8210610b4b576040517f08c379a0000000000000000000000000000000000000000000000000000000008152600401610b4290613a75565b60405180910390fd5b60098281548110610b85577f4e487b7100000000000000000000000000000000000000000000000000000000600052603260045260246000fd5b90600052602060002001549050919050565b6000806003600084815260200190815260200160002060009054906101000a900473ffffffffffffffffffffffffffffffffffffffff169050600073ffffffffffffffffffffffffffffffffffffffff168173ffffffffffffffffffffffffffffffffffffffff161415610c40576040517f08c379a0000000000000000000000000000000000000000000000000000000008152600401610c3790613975565b60405180910390fd5b80915050919050565b600d6020528160005260406000208181548110610c6557600080fd5b90600052602060002001600091509150505481565b60008073ffffffffffffffffffffffffffffffffffffffff168273ffffffffffffffffffffffffffffffffffffffff161415610ceb576040517f08c379a0000000000000000000000000000000000000000000000000000000008152600401610ce290613955565b60405180910390fd5b600460008373ffffffffffffffffffffffffffffffffffffffff1673ffffffffffffffffffffffffffffffffffffffff168152602001908152602001600020549050919050565b610d3a611912565b73ffffffffffffffffffffffffffffffffffffffff16610d58610f79565b73ffffffffffffffffffffffffffffffffffffffff1614610dae576040517f08c379a0000000000000000000000000000000000000000000000000000000008152600401610da5906139d5565b60405180910390fd5b610db86000611d0d565b565b600e6020528160005260406000208181548110610dd657600080fd5b906000526020600020016000915091509054906101000a900473ffffffffffffffffffffffffffffffffffffffff1681565b610e1b610e13610f79565b600b54611dd1565b81600c6000600b5481526020019081526020016000209080519060200190610e44929190612b2f565b50600d60003373ffffffffffffffffffffffffffffffffffffffff1673ffffffffffffffffffffffffffffffffffffffff168152602001908152602001600020600b549080600181540180825580915050600190039060005260206000200160009091909190915055600e6000828152602001908152602001600020339080600181540180825580915050600190039060005260206000200160009091909190916101000a81548173ffffffffffffffffffffffffffffffffffffffff021916908373ffffffffffffffffffffffffffffffffffffffff160217905550600f6000828152602001908152602001600020600b549080600181540180825580915050600190039060005260206000200160009091909190915055600b6000815480929190610f7090613d27565b91905055505050565b60008060009054906101000a900473ffffffffffffffffffffffffffffffffffffffff16905090565b6000610fad82610c7a565b905060008167ffffffffffffffff811115610ff1577f4e487b7100000000000000000000000000000000000000000000000000000000600052604160045260246000fd5b60405190808252806020026020018201604052801561101f5781602001602082028036833780820191505090505b509050600d60008473ffffffffffffffffffffffffffffffffffffffff1673ffffffffffffffffffffffffffffffffffffffff1681526020019081526020016000208054806020026020016040519081016040528092919081815260200182805480156110ab57602002820191906000526020600020905b815481526020019060010190808311611097575b50505050509050505050565b6060600280546110c690613cf5565b80601f01602080910402602001604051908101604052809291908181526020018280546110f290613cf5565b801561113f5780601f106111145761010080835404028352916020019161113f565b820191906000526020600020905b81548152906001019060200180831161112257829003601f168201915b5050505050905090565b61115b611154611912565b8383611f9f565b5050565b600b5481565b611170338383611ab1565b5050565b600080600e60008481526020019081526020016000206000815481106111c3577f4e487b7100000000000000000000000000000000000000000000000000000000600052603260045260246000fd5b9060005260206000200160009054906101000a900473ffffffffffffffffffffffffffffffffffffffff1690506000600e600085815260200190815260200160002080549050905061124a6040518060400160405280600f81526020017f7061727469636970616e7473436e7400000000000000000000000000000000008152508261210c565b60005b60018261125a9190613c0b565b8110156113695760106000868152602001908152602001600020600e60008781526020019081526020016000206001836112949190613b84565b815481106112cb577f4e487b7100000000000000000000000000000000000000000000000000000000600052603260045260246000fd5b9060005260206000200160009054906101000a900473ffffffffffffffffffffffffffffffffffffffff169080600181540180825580915050600190039060005260206000200160009091909190916101000a81548173ffffffffffffffffffffffffffffffffffffffff021916908373ffffffffffffffffffffffffffffffffffffffff160217905550808061136190613d27565b91505061124d565b60106000868152602001908152602001600020839080600181540180825580915050600190039060005260206000200160009091909190916101000a81548173ffffffffffffffffffffffffffffffffffffffff021916908373ffffffffffffffffffffffffffffffffffffffff160217905550819350505050919050565b6113f96113f3611912565b836119d3565b611438576040517f08c379a000000000000000000000000000000000000000000000000000000000815260040161142f90613a55565b60405180910390fd5b611444848484846121a8565b50505050565b6060611455826118a6565b611494576040517f08c379a000000000000000000000000000000000000000000000000000000000815260040161148b90613a15565b60405180910390fd5b600061149e612204565b905060008151116114be57604051806020016040528060008152506114e9565b806114c88461221b565b6040516020016114d992919061375d565b6040516020818303038152906040525b915050919050565b60006114fc83611174565b9050611507816123c8565b60005b81811015611601576115ee61151d610f79565b601060008781526020019081526020016000208381548110611568577f4e487b7100000000000000000000000000000000000000000000000000000000600052603260045260246000fd5b9060005260206000200160009054906101000a900473ffffffffffffffffffffffffffffffffffffffff16600f600088815260200190815260200160002084815481106115de577f4e487b7100000000000000000000000000000000000000000000000000000000600052603260045260246000fd5b9060005260206000200154611ab1565b80806115f990613d27565b91505061150a565b50505050565b600f602052816000526040600020818154811061162357600080fd5b90600052602060002001600091509150505481565b6000600660008473ffffffffffffffffffffffffffffffffffffffff1673ffffffffffffffffffffffffffffffffffffffff16815260200190815260200160002060008373ffffffffffffffffffffffffffffffffffffffff1673ffffffffffffffffffffffffffffffffffffffff16815260200190815260200160002060009054906101000a900460ff16905092915050565b6116d4611912565b73ffffffffffffffffffffffffffffffffffffffff166116f2610f79565b73ffffffffffffffffffffffffffffffffffffffff1614611748576040517f08c379a000000000000000000000000000000000000000000000000000000000815260040161173f906139d5565b60405180910390fd5b600073ffffffffffffffffffffffffffffffffffffffff168173ffffffffffffffffffffffffffffffffffffffff1614156117b8576040517f08c379a00000000000000000000000000000000000000000000000000000000081526004016117af90613895565b60405180910390fd5b6117c181611d0d565b50565b60007f80ac58cd000000000000000000000000000000000000000000000000000000007bffffffffffffffffffffffffffffffffffffffffffffffffffffffff1916827bffffffffffffffffffffffffffffffffffffffffffffffffffffffff1916148061188f57507f5b5e139f000000000000000000000000000000000000000000000000000000007bffffffffffffffffffffffffffffffffffffffffffffffffffffffff1916827bffffffffffffffffffffffffffffffffffffffffffffffffffffffff1916145b8061189f575061189e82612461565b5b9050919050565b60008073ffffffffffffffffffffffffffffffffffffffff166003600084815260200190815260200160002060009054906101000a900473ffffffffffffffffffffffffffffffffffffffff1673ffffffffffffffffffffffffffffffffffffffff1614159050919050565b600033905090565b816005600083815260200190815260200160002060006101000a81548173ffffffffffffffffffffffffffffffffffffffff021916908373ffffffffffffffffffffffffffffffffffffffff160217905550808273ffffffffffffffffffffffffffffffffffffffff1661198d83610b97565b73ffffffffffffffffffffffffffffffffffffffff167f8c5be1e5ebec7d5bd14f71427d1e84f3dd0314c0f7b2291e5b200ac8c7c3b92560405160405180910390a45050565b60006119de826118a6565b611a1d576040517f08c379a0000000000000000000000000000000000000000000000000000000008152600401611a1490613915565b60405180910390fd5b6000611a2883610b97565b90508073ffffffffffffffffffffffffffffffffffffffff168473ffffffffffffffffffffffffffffffffffffffff161480611a9757508373ffffffffffffffffffffffffffffffffffffffff16611a7f84610791565b73ffffffffffffffffffffffffffffffffffffffff16145b80611aa85750611aa78185611638565b5b91505092915050565b8273ffffffffffffffffffffffffffffffffffffffff16611ad182610b97565b73ffffffffffffffffffffffffffffffffffffffff1614611b27576040517f08c379a0000000000000000000000000000000000000000000000000000000008152600401611b1e906139f5565b60405180910390fd5b600073ffffffffffffffffffffffffffffffffffffffff168273ffffffffffffffffffffffffffffffffffffffff161415611b97576040517f08c379a0000000000000000000000000000000000000000000000000000000008152600401611b8e906138d5565b60405180910390fd5b611ba28383836124cb565b611bad60008261191a565b6001600460008573ffffffffffffffffffffffffffffffffffffffff1673ffffffffffffffffffffffffffffffffffffffff1681526020019081526020016000206000828254611bfd9190613c0b565b925050819055506001600460008473ffffffffffffffffffffffffffffffffffffffff1673ffffffffffffffffffffffffffffffffffffffff1681526020019081526020016000206000828254611c549190613b84565b92505081905550816003600083815260200190815260200160002060006101000a81548173ffffffffffffffffffffffffffffffffffffffff021916908373ffffffffffffffffffffffffffffffffffffffff160217905550808273ffffffffffffffffffffffffffffffffffffffff168473ffffffffffffffffffffffffffffffffffffffff167fddf252ad1be2c89b69c2b068fc378daa952ba7f163c4a11628f55a4df523b3ef60405160405180910390a4505050565b60008060009054906101000a900473ffffffffffffffffffffffffffffffffffffffff169050816000806101000a81548173ffffffffffffffffffffffffffffffffffffffff021916908373ffffffffffffffffffffffffffffffffffffffff1602179055508173ffffffffffffffffffffffffffffffffffffffff168173ffffffffffffffffffffffffffffffffffffffff167f8be0079c531659141344cd1fd0a4f28419497f9722a3daafe3b4186f6b6457e060405160405180910390a35050565b600073ffffffffffffffffffffffffffffffffffffffff168273ffffffffffffffffffffffffffffffffffffffff161415611e41576040517f08c379a0000000000000000000000000000000000000000000000000000000008152600401611e3890613995565b60405180910390fd5b611e4a816118a6565b15611e8a576040517f08c379a0000000000000000000000000000000000000000000000000000000008152600401611e81906138b5565b60405180910390fd5b611e96600083836124cb565b6001600460008473ffffffffffffffffffffffffffffffffffffffff1673ffffffffffffffffffffffffffffffffffffffff1681526020019081526020016000206000828254611ee69190613b84565b92505081905550816003600083815260200190815260200160002060006101000a81548173ffffffffffffffffffffffffffffffffffffffff021916908373ffffffffffffffffffffffffffffffffffffffff160217905550808273ffffffffffffffffffffffffffffffffffffffff16600073ffffffffffffffffffffffffffffffffffffffff167fddf252ad1be2c89b69c2b068fc378daa952ba7f163c4a11628f55a4df523b3ef60405160405180910390a45050565b8173ffffffffffffffffffffffffffffffffffffffff168373ffffffffffffffffffffffffffffffffffffffff16141561200e576040517f08c379a0000000000000000000000000000000000000000000000000000000008152600401612005906138f5565b60405180910390fd5b80600660008573ffffffffffffffffffffffffffffffffffffffff1673ffffffffffffffffffffffffffffffffffffffff16815260200190815260200160002060008473ffffffffffffffffffffffffffffffffffffffff1673ffffffffffffffffffffffffffffffffffffffff16815260200190815260200160002060006101000a81548160ff0219169083151502179055508173ffffffffffffffffffffffffffffffffffffffff168373ffffffffffffffffffffffffffffffffffffffff167f17307eab39ab6107e8899845ad3d59bd9653f200f220920489ca2b5937696c31836040516120ff91906137e8565b60405180910390a3505050565b6121a48282604051602401612122929190613825565b6040516020818303038152906040527f9710a9d0000000000000000000000000000000000000000000000000000000007bffffffffffffffffffffffffffffffffffffffffffffffffffffffff19166020820180517bffffffffffffffffffffffffffffffffffffffffffffffffffffffff83818316178352505050506125df565b5050565b6121b3848484611ab1565b6121bf84848484612608565b6121fe576040517f08c379a00000000000000000000000000000000000000000000000000000000081526004016121f590613875565b60405180910390fd5b50505050565b606060405180602001604052806000815250905090565b60606000821415612263576040518060400160405280600181526020017f300000000000000000000000000000000000000000000000000000000000000081525090506123c3565b600082905060005b6000821461229557808061227e90613d27565b915050600a8261228e9190613bda565b915061226b565b60008167ffffffffffffffff8111156122d7577f4e487b7100000000000000000000000000000000000000000000000000000000600052604160045260246000fd5b6040519080825280601f01601f1916602001820160405280156123095781602001600182028036833780820191505090505b5090505b600085146123bc576001826123229190613c0b565b9150600a856123319190613d70565b603061233d9190613b84565b60f81b818381518110612379577f4e487b7100000000000000000000000000000000000000000000000000000000600052603260045260246000fd5b60200101907effffffffffffffffffffffffffffffffffffffffffffffffffffffffffffff1916908160001a905350600a856123b59190613bda565b945061230d565b8093505050505b919050565b61245e816040516024016123dc9190613a95565b6040516020818303038152906040527ff5b1bba9000000000000000000000000000000000000000000000000000000007bffffffffffffffffffffffffffffffffffffffffffffffffffffffff19166020820180517bffffffffffffffffffffffffffffffffffffffffffffffffffffffff83818316178352505050506125df565b50565b60007f01ffc9a7000000000000000000000000000000000000000000000000000000007bffffffffffffffffffffffffffffffffffffffffffffffffffffffff1916827bffffffffffffffffffffffffffffffffffffffffffffffffffffffff1916149050919050565b6124d683838361279f565b600073ffffffffffffffffffffffffffffffffffffffff168373ffffffffffffffffffffffffffffffffffffffff16141561251957612514816127a4565b612558565b8173ffffffffffffffffffffffffffffffffffffffff168373ffffffffffffffffffffffffffffffffffffffff16146125575761255683826127ed565b5b5b600073ffffffffffffffffffffffffffffffffffffffff168273ffffffffffffffffffffffffffffffffffffffff16141561259b576125968161295a565b6125da565b8273ffffffffffffffffffffffffffffffffffffffff168273ffffffffffffffffffffffffffffffffffffffff16146125d9576125d88282612a9d565b5b5b505050565b60008151905060006a636f6e736f6c652e6c6f679050602083016000808483855afa5050505050565b60006126298473ffffffffffffffffffffffffffffffffffffffff16612b1c565b15612792578373ffffffffffffffffffffffffffffffffffffffff1663150b7a02612652611912565b8786866040518563ffffffff1660e01b8152600401612674949392919061379c565b602060405180830381600087803b15801561268e57600080fd5b505af19250505080156126bf57506040513d601f19601f820116820180604052508101906126bc9190612edb565b60015b612742573d80600081146126ef576040519150601f19603f3d011682016040523d82523d6000602084013e6126f4565b606091505b5060008151141561273a576040517f08c379a000000000000000000000000000000000000000000000000000000000815260040161273190613875565b60405180910390fd5b805181602001fd5b63150b7a0260e01b7bffffffffffffffffffffffffffffffffffffffffffffffffffffffff1916817bffffffffffffffffffffffffffffffffffffffffffffffffffffffff191614915050612797565b600190505b949350505050565b505050565b600980549050600a600083815260200190815260200160002081905550600981908060018154018082558091505060019003906000526020600020016000909190919091505550565b600060016127fa84610c7a565b6128049190613c0b565b90506000600860008481526020019081526020016000205490508181146128e9576000600760008673ffffffffffffffffffffffffffffffffffffffff1673ffffffffffffffffffffffffffffffffffffffff168152602001908152602001600020600084815260200190815260200160002054905080600760008773ffffffffffffffffffffffffffffffffffffffff1673ffffffffffffffffffffffffffffffffffffffff168152602001908152602001600020600084815260200190815260200160002081905550816008600083815260200190815260200160002081905550505b6008600084815260200190815260200160002060009055600760008573ffffffffffffffffffffffffffffffffffffffff1673ffffffffffffffffffffffffffffffffffffffff16815260200190815260200160002060008381526020019081526020016000206000905550505050565b6000600160098054905061296e9190613c0b565b90506000600a60008481526020019081526020016000205490506000600983815481106129c4577f4e487b7100000000000000000000000000000000000000000000000000000000600052603260045260246000fd5b906000526020600020015490508060098381548110612a0c577f4e487b7100000000000000000000000000000000000000000000000000000000600052603260045260246000fd5b906000526020600020018190555081600a600083815260200190815260200160002081905550600a6000858152602001908152602001600020600090556009805480612a81577f4e487b7100000000000000000000000000000000000000000000000000000000600052603160045260246000fd5b6001900381819060005260206000200160009055905550505050565b6000612aa883610c7a565b905081600760008573ffffffffffffffffffffffffffffffffffffffff1673ffffffffffffffffffffffffffffffffffffffff168152602001908152602001600020600083815260200190815260200160002081905550806008600084815260200190815260200160002081905550505050565b600080823b905060008111915050919050565b828054612b3b90613cf5565b90600052602060002090601f016020900481019282612b5d5760008555612ba4565b82601f10612b7657805160ff1916838001178555612ba4565b82800160010185558215612ba4579182015b82811115612ba3578251825591602001919060010190612b88565b5b509050612bb19190612bb5565b5090565b5b80821115612bce576000816000905550600101612bb6565b5090565b6000612be5612be084613ae1565b613ab0565b905082815260208101848484011115612bfd57600080fd5b612c08848285613cb3565b509392505050565b6000612c23612c1e84613b11565b613ab0565b905082815260208101848484011115612c3b57600080fd5b612c46848285613cb3565b509392505050565b600081359050612c5d81613e6e565b92915050565b600081359050612c7281613e85565b92915050565b600081359050612c8781613e9c565b92915050565b600081519050612c9c81613e9c565b92915050565b600082601f830112612cb357600080fd5b8135612cc3848260208601612bd2565b91505092915050565b600082601f830112612cdd57600080fd5b8135612ced848260208601612c10565b91505092915050565b600081359050612d0581613eb3565b92915050565b600060208284031215612d1d57600080fd5b6000612d2b84828501612c4e565b91505092915050565b60008060408385031215612d4757600080fd5b6000612d5585828601612c4e565b9250506020612d6685828601612c4e565b9150509250929050565b600080600060608486031215612d8557600080fd5b6000612d9386828701612c4e565b9350506020612da486828701612c4e565b9250506040612db586828701612cf6565b9150509250925092565b60008060008060808587031215612dd557600080fd5b6000612de387828801612c4e565b9450506020612df487828801612c4e565b9350506040612e0587828801612cf6565b925050606085013567ffffffffffffffff811115612e2257600080fd5b612e2e87828801612ca2565b91505092959194509250565b60008060408385031215612e4d57600080fd5b6000612e5b85828601612c4e565b9250506020612e6c85828601612c63565b9150509250929050565b60008060408385031215612e8957600080fd5b6000612e9785828601612c4e565b9250506020612ea885828601612cf6565b9150509250929050565b600060208284031215612ec457600080fd5b6000612ed284828501612c78565b91505092915050565b600060208284031215612eed57600080fd5b6000612efb84828501612c8d565b91505092915050565b60008060408385031215612f1757600080fd5b600083013567ffffffffffffffff811115612f3157600080fd5b612f3d85828601612ccc565b9250506020612f4e85828601612cf6565b9150509250929050565b600060208284031215612f6a57600080fd5b6000612f7884828501612cf6565b91505092915050565b60008060408385031215612f9457600080fd5b6000612fa285828601612cf6565b9250506020612fb385828601612c4e565b9150509250929050565b60008060408385031215612fd057600080fd5b6000612fde85828601612cf6565b9250506020612fef85828601612cf6565b9150509250929050565b61300281613c3f565b82525050565b61301181613c51565b82525050565b600061302282613b41565b61302c8185613b57565b935061303c818560208601613cc2565b61304581613e5d565b840191505092915050565b600061305b82613b4c565b6130658185613b68565b9350613075818560208601613cc2565b61307e81613e5d565b840191505092915050565b600061309482613b4c565b61309e8185613b79565b93506130ae818560208601613cc2565b80840191505092915050565b60006130c7602b83613b68565b91507f455243373231456e756d657261626c653a206f776e657220696e646578206f7560008301527f74206f6620626f756e64730000000000000000000000000000000000000000006020830152604082019050919050565b600061312d603283613b68565b91507f4552433732313a207472616e7366657220746f206e6f6e20455243373231526560008301527f63656976657220696d706c656d656e74657200000000000000000000000000006020830152604082019050919050565b6000613193602683613b68565b91507f4f776e61626c653a206e6577206f776e657220697320746865207a65726f206160008301527f64647265737300000000000000000000000000000000000000000000000000006020830152604082019050919050565b60006131f9601c83613b68565b91507f4552433732313a20746f6b656e20616c7265616479206d696e746564000000006000830152602082019050919050565b6000613239602483613b68565b91507f4552433732313a207472616e7366657220746f20746865207a65726f2061646460008301527f72657373000000000000000000000000000000000000000000000000000000006020830152604082019050919050565b600061329f601983613b68565b91507f4552433732313a20617070726f766520746f2063616c6c6572000000000000006000830152602082019050919050565b60006132df602c83613b68565b91507f4552433732313a206f70657261746f7220717565727920666f72206e6f6e657860008301527f697374656e7420746f6b656e00000000000000000000000000000000000000006020830152604082019050919050565b6000613345603883613b68565b91507f4552433732313a20617070726f76652063616c6c6572206973206e6f74206f7760008301527f6e6572206e6f7220617070726f76656420666f7220616c6c00000000000000006020830152604082019050919050565b60006133ab602a83613b68565b91507f4552433732313a2062616c616e636520717565727920666f7220746865207a6560008301527f726f2061646472657373000000000000000000000000000000000000000000006020830152604082019050919050565b6000613411602983613b68565b91507f4552433732313a206f776e657220717565727920666f72206e6f6e657869737460008301527f656e7420746f6b656e00000000000000000000000000000000000000000000006020830152604082019050919050565b6000613477602083613b68565b91507f4552433732313a206d696e7420746f20746865207a65726f20616464726573736000830152602082019050919050565b60006134b7602c83613b68565b91507f4552433732313a20617070726f76656420717565727920666f72206e6f6e657860008301527f697374656e7420746f6b656e00000000000000000000000000000000000000006020830152604082019050919050565b600061351d602083613b68565b91507f4f776e61626c653a2063616c6c6572206973206e6f7420746865206f776e65726000830152602082019050919050565b600061355d602983613b68565b91507f4552433732313a207472616e73666572206f6620746f6b656e2074686174206960008301527f73206e6f74206f776e00000000000000000000000000000000000000000000006020830152604082019050919050565b60006135c3602f83613b68565b91507f4552433732314d657461646174613a2055524920717565727920666f72206e6f60008301527f6e6578697374656e7420746f6b656e00000000000000000000000000000000006020830152604082019050919050565b6000613629602183613b68565b91507f4552433732313a20617070726f76616c20746f2063757272656e74206f776e6560008301527f72000000000000000000000000000000000000000000000000000000000000006020830152604082019050919050565b600061368f603183613b68565b91507f4552433732313a207472616e736665722063616c6c6572206973206e6f74206f60008301527f776e6572206e6f7220617070726f7665640000000000000000000000000000006020830152604082019050919050565b60006136f5602c83613b68565b91507f455243373231456e756d657261626c653a20676c6f62616c20696e646578206f60008301527f7574206f6620626f756e647300000000000000000000000000000000000000006020830152604082019050919050565b61375781613ca9565b82525050565b60006137698285613089565b91506137758284613089565b91508190509392505050565b60006020820190506137966000830184612ff9565b92915050565b60006080820190506137b16000830187612ff9565b6137be6020830186612ff9565b6137cb604083018561374e565b81810360608301526137dd8184613017565b905095945050505050565b60006020820190506137fd6000830184613008565b92915050565b6000602082019050818103600083015261381d8184613050565b905092915050565b6000604082019050818103600083015261383f8185613050565b905061384e602083018461374e565b9392505050565b6000602082019050818103600083015261386e816130ba565b9050919050565b6000602082019050818103600083015261388e81613120565b9050919050565b600060208201905081810360008301526138ae81613186565b9050919050565b600060208201905081810360008301526138ce816131ec565b9050919050565b600060208201905081810360008301526138ee8161322c565b9050919050565b6000602082019050818103600083015261390e81613292565b9050919050565b6000602082019050818103600083015261392e816132d2565b9050919050565b6000602082019050818103600083015261394e81613338565b9050919050565b6000602082019050818103600083015261396e8161339e565b9050919050565b6000602082019050818103600083015261398e81613404565b9050919050565b600060208201905081810360008301526139ae8161346a565b9050919050565b600060208201905081810360008301526139ce816134aa565b9050919050565b600060208201905081810360008301526139ee81613510565b9050919050565b60006020820190508181036000830152613a0e81613550565b9050919050565b60006020820190508181036000830152613a2e816135b6565b9050919050565b60006020820190508181036000830152613a4e8161361c565b9050919050565b60006020820190508181036000830152613a6e81613682565b9050919050565b60006020820190508181036000830152613a8e816136e8565b9050919050565b6000602082019050613aaa600083018461374e565b92915050565b6000604051905081810181811067ffffffffffffffff82111715613ad757613ad6613e2e565b5b8060405250919050565b600067ffffffffffffffff821115613afc57613afb613e2e565b5b601f19601f8301169050602081019050919050565b600067ffffffffffffffff821115613b2c57613b2b613e2e565b5b601f19601f8301169050602081019050919050565b600081519050919050565b600081519050919050565b600082825260208201905092915050565b600082825260208201905092915050565b600081905092915050565b6000613b8f82613ca9565b9150613b9a83613ca9565b9250827fffffffffffffffffffffffffffffffffffffffffffffffffffffffffffffffff03821115613bcf57613bce613da1565b5b828201905092915050565b6000613be582613ca9565b9150613bf083613ca9565b925082613c0057613bff613dd0565b5b828204905092915050565b6000613c1682613ca9565b9150613c2183613ca9565b925082821015613c3457613c33613da1565b5b828203905092915050565b6000613c4a82613c89565b9050919050565b60008115159050919050565b60007fffffffff0000000000000000000000000000000000000000000000000000000082169050919050565b600073ffffffffffffffffffffffffffffffffffffffff82169050919050565b6000819050919050565b82818337600083830152505050565b60005b83811015613ce0578082015181840152602081019050613cc5565b83811115613cef576000848401525b50505050565b60006002820490506001821680613d0d57607f821691505b60208210811415613d2157613d20613dff565b5b50919050565b6000613d3282613ca9565b91507fffffffffffffffffffffffffffffffffffffffffffffffffffffffffffffffff821415613d6557613d64613da1565b5b600182019050919050565b6000613d7b82613ca9565b9150613d8683613ca9565b925082613d9657613d95613dd0565b5b828206905092915050565b7f4e487b7100000000000000000000000000000000000000000000000000000000600052601160045260246000fd5b7f4e487b7100000000000000000000000000000000000000000000000000000000600052601260045260246000fd5b7f4e487b7100000000000000000000000000000000000000000000000000000000600052602260045260246000fd5b7f4e487b7100000000000000000000000000000000000000000000000000000000600052604160045260246000fd5b6000601f19601f8301169050919050565b613e7781613c3f565b8114613e8257600080fd5b50565b613e8e81613c51565b8114613e9957600080fd5b50565b613ea581613c5d565b8114613eb057600080fd5b50565b613ebc81613ca9565b8114613ec757600080fd5b5056fea2646970667358221220797c7931c952c140225ac04b6d2fc11d98e3d21731f32d870dba1b774112cef964736f6c63430008000033",
  "linkReferences": {},
  "deployedLinkReferences": {}
}